:100000000C94D9010C94F6010C94F6010C94F601B1
:100010000C94F6010C94F6010C94F6010C94F00883
:100020000C94F6010C94F6010C94F6010C94A109C1
:100030000C9497090C94F6010C94F6010C94F601BB
:100040000C94F6010C948D090C94A0080C94F60104
:100050000C94AB090C945C090C94F6010C94F60119
:100060000C94F6010C94F6013E0E410E440E4D0E1A
:10007000500E530E560EDD14E914EC14EF14F21466
:10008000F514F814FB1600170217061708170A17BD
:100090000C170E171017121753175D1777178717BE
:1000A0009517AE17E0176364696E6F7073757858B3
:1000B0005B00D8007005BA00DD0273696E666F00E0
:1000C00053797374656D696E666F726D6174696F73
:1000D0006E0073696E666F0068656C70004C6973C2
:1000E00074206F6620616C6C20636F6D6D616E644F
:1000F000730068656C7000202D3E2053796E74612A
:1001000078206572726F720A0D55736167653A20C7
:10011000004572726F723A20556E6B6E6F776E206B
:10012000636F6D6D616E640A0D004572726F7220AF
:10013000000A0D3E0068039F0A4C03B5091603B779
:1001400009E702510AAF027C109202030B7E0253B0
:10015000114C34207C20506F776572202873202B3F
:10016000202D290A2020207C202020465245515550
:10017000207C2020202020564143207C202020432A
:10018000555252207C20445048207C2020202020A2
:100190002053207C20202020202050207C20202044
:1001A000202020202051207C004C33207C204375CF
:1001B0007272656E74202873202B202D290A20204E
:1001C000207C202B2F2D20544820414443204D4992
:1001D0004E204D415820495050207C20445048200A
:1001E0007C2053494D207C20202043555252004C06
:1001F00032207C20566F6C746167650A2020207C59
:10020000202B2F2D20544820414443204D494E207F
:100210004D415820565050207C2020504552494F87
:1002200044207C2020204652455155207C2020200F
:100230002020564143207C20004C31207C2020206F
:1002400055702D54696D65207C204130204131204E
:100250004132204136204137204138207C20205433
:10026000656D70207C202020564350207C2020206B
:1002700020204350207C20535441545553006C6F30
:1002800067006C6F67006C6F67205B636C65617201
:100290005D007472696D007472696D207461626CC6
:1002A00065007472696D205B72657365745D0065CD
:1002B000657000656570726F6D202E2E2E0065656D
:1002C00070205B632F722F775D205B6865782D61EE
:1002D0006464726573735D205B6E756D6265727CBC
:1002E00076616C75655D0070776D00736574205084
:1002F000574D2064757479206379636C6520666F4F
:10030000722043502F706F72740070776D207B30B5
:100310002D3130307D00736574007365742066750F
:100320006E6374696F6E2F706F72740073657420E2
:100330007B6B317C6B327C667C767C697C747D2047
:100340007B307C317C76616C75657D00746573747F
:1003500000636F6D6D616E646F20666F72207465EF
:100360007374007465737400696E666F0041707019
:100370006C69636174696F6E20696E666F73006982
:100380006E666F004C696E652D4D6F64653A204353
:1003900054524C2D582C204354524C2D592C204350
:1003A00054524C2D432C2052657475726E20200AD5
:1003B0000D0011241FBECFEFD8E0DEBFCDBF14E08B
:1003C000A0E0B1E0ECE9FBE402C005900D92A43B93
:1003D000B107D9F725E0A4EBB4E001C01D92AE3817
:1003E000B207E1F70E948A1C0C94CC250C94000003
:1003F000209186053091870528173907A1F4E091EF
:10040000B6048091B7048E1771F091E09E0F90931F
:10041000B604F0E0EC54FB4F8581903110F010925F
:10042000B60490E008958EEF9FEF0895209188051F
:10043000309189052617370751F49091C00095FF38
:10044000FCCF8093C600082E000C990B08958EEF08
:100450009FEF08958F3F11F08F5F08958FEF0895FC
:100460008F3F2FEF920711F0019608958FEF9FEFC6
:1004700008950FB6F8940F929091B504292F282B68
:100480002093B5040F900FBE982381E009F480E01B
:1004900008950FB6F8940F929091B504282F2095E7
:1004A00029232093B5040F900FBE982381E009F40F
:1004B00080E008959091B504982381E009F480E0EC
:1004C00008958CED91E09F938F930E946E1F0F9083
:1004D0000F9008950F931F93CF93DF931F92CDB783
:1004E000DEB78C010F5F1F4F41E050E0BC01CE0131
:1004F00001960E94C91E8981882359F06091880560
:1005000070918905082E000C990B0E94321FC801BA
:10051000E8CF0F90DF91CF911F910F9108950E9426
:100520006A020C946102EF92FF921F93CF93DF93C4
:10053000D82F162FC0E0E62E660FFF0860918805C1
:10054000709189058D2F0D2E000C990B8827990F1E
:10055000881F9927C0960E94321FC33049F4112387
:1005600039F06091880570918905C7010E94321F9A
:10057000CF5FDD0FC83011F7DF91CF911F91FF9052
:10058000EF900895CF93C82F1F928F938BEA91E03D
:100590009F938F930E946E1F60E28C2F0E949302A4
:1005A0000F900F900F900F906091880570918905C2
:1005B00089E290E0CF910C94321F84EB91E09F93FD
:1005C0008F930E946E1F8091B4040E94C2020E9409
:1005D00061020F900F9080E008951F93CF93DF93F7
:1005E000182FC92F9F938F9386EC91E09F938F9341
:1005F0000E946E1F60E28C2F0E949302C6E8D5E035
:100600006A817B8180E290E00E94321F60E2812F4C
:100610000E9493020F900F900F900F906A817B8140
:1006200089E290E0DF91CF911F910C94321FCF931C
:10063000DF93EB01FC012081203331F42181283745
:1006400019F440E150E002C04AE050E060E070E0A0
:100650000E94AA1DC617D70714F0CB0102C08FEF66
:100660009FEFDF91CF910895CF93DF931F92CDB786
:10067000DEB71982863629F0833761F08536E1F4DA
:1006800010C077FD19C041E050E0CE0101960E94F4
:10069000C91E0FC0611589E0780770F4FB018081E5
:1006A00007C06115F4E07F0738F4CB010E943D25B7
:1006B0008983898190E002C08FEF9FEF0F90DF91D7
:1006C000CF9108958091B7049091B604891708F4EA
:1006D000805F891B08951F93CF93DF93182F0FB668
:1006E000F8940F920E946203181760F4E091B60428
:1006F000E10FE03148F0E051F0E0EC54FB4FC581F0
:10070000D0E002C0CFEFDFEF0F900FBECE01DF9140
:10071000CF911F9108950FB6F8940F928091C00069
:1007200087FF05C08091C6008093B904F7CF10926F
:10073000B6041092B7041092B8040F900FBE08953B
:100740005F982C982D9894B19F6094B995B1907F43
:1007500095B995B1282F22952F70922B95B95F9A54
:1007600090E59A95F1F75F9895E09A95F1F700007A
:1007700095B1907F95B995B18F70892B85B95F9AA6
:1007800080E58A95F1F75F9895E09A95F1F700007A
:1007900008959C018091C90487FD45C08FEF85B9FC
:1007A00084B1807F84B91092CA042C9A2D9885E078
:1007B0008A95F1F700005F9A80E58A95F1F783B199
:1007C0008295807F8093CA045F9885E08A95F1F7CF
:1007D00000005F9A80E58A95F1F793B19F70809150
:1007E000CA04982B9093CA045F9885E08A95F1F724
:1007F00000002C989091CA0490782B30310528F095
:100800002B50310911F09111CECF8091C904813064
:1008100029F4992319F08BEF8093C90484B18F6078
:1008200084B981E0911180E00895CF931092C904BA
:10083000C0E088E20E94A003C11105C08FE19EE4E0
:100840000197F1F704C08FE891E00197F1F700C03C
:100850000000CF5FC43069F78CE00E94A00382E300
:1008600090E00E94C903811102C08FEF17C08CE095
:100870000E94A00382E390E00E94C903811102C09C
:100880008DEF0CC081E00E94A00380EB94E00E94F9
:10089000C903811102C08CEF01C081E08093C904BB
:1008A000CF91089587E1E4EBF4E0DF011D928A9592
:1008B000E9F78FE39CE90197F1F700C0000087ECAE
:1008C0008093B30082E08093B0008093B100809366
:1008D000700087BB1092800099E09093810020E423
:1008E00036E0309389002093880030938B0020936A
:1008F0008A0094E090936F0092E29093C40010926B
:10090000C5008093C00086E08093C20088E9809390
:10091000C10085B1807C85B95F9884B18F6384B94B
:10092000579A0E941504E6E8F5E08EE091E0938383
:10093000828380E091E0918380833B9A3C9A3D9A48
:100940008AB1837C8AB98BB18C638BB980EE80933A
:100950007C008EEA80937A0085E080937B00089586
:1009600082E390E00E94C903811103C08AEF809363
:10097000C9040895CF93C82F0E94B0048C2F8068BB
:100980000E94A003CF910C94B0040E94B0048CE0AC
:100990000E94A0030C94B0040E94B00488E00E945E
:1009A000A0030C94B0040E94B00481E00E94A00354
:1009B00080EB94E00E94C9038823D1F308959091BD
:1009C000C904913051F4823040F4882319F080E456
:1009D000860F01C0862F0C94BA040895CF93DF933D
:1009E0002091C904213099F5EC010E94B0045F9870
:1009F0002C982D9A84B18F6084B985B1807F85B998
:100A000025B1CE0134E0959587953A95E1F7822B93
:100A100085B95F9A80E58A95F1F75F9885E08A95B8
:100A2000F1F7000085B1807F85B985B1CF70C82B03
:100A3000C5B95F9A80E58A95F1F75F9885E08A9558
:100A4000F1F700002D9885E08A95F1F70000DF911D
:100A5000CF910895CF93DF93EC018991882351F0D2
:100A60009091C904913031F4082E000C990B0E942A
:100A7000EE04F3CFDF91CF910C94B0041F93CF938A
:100A8000DF9300D000D0CDB7DEB71A8219821C8266
:100A90001B82823038F494E0899FB00111246E5497
:100AA0007F4F0CC01EEF180F0E94A60A181760F4A3
:100AB00084E0189FB00111246B5C7E4F44E050E04D
:100AC000CE0101960E94C91E69817A818B819C8129
:100AD0000F900F900F900F90DF91CF911F9108957D
:100AE000AF92BF92CF92DF92EF92FF920F931F933C
:100AF000CF93DF93C0E080E0D1E0D80F0E943E05A5
:100B0000892B41F0CB010E94DB1EC81708F4C82FC7
:100B10008D2FF2CF80E0D0E02196AA24A394A80ED6
:100B20000E943E056B017C01EF2801F1CB010E9480
:100B30006A02C6010E94DB1E8C01B82E8B2D90E04C
:100B4000C817D90754F0609188057091890580E233
:100B500090E00E94321FB394F1CF0F5F1F4FC80186
:100B60008C0D9D1D0E948F028A2DD7CF80E0DF91D2
:100B7000CF911F910F91FF90EF90DF90CF90BF909A
:100B8000AF900895EF92FF920F931F93CF93DF934F
:100B90001F92CDB7DEB7FC01608171818B010F5FC1
:100BA0001F4F41E050E0CE0101960E94C91EB801DE
:100BB00089818111F3CF7801FFEFEF1AFF0A41E03D
:100BC00050E0B801CE0101960E94C91E87018981BB
:100BD0008111F1CFC7010E946A020F90DF91CF917E
:100BE0001F910F91FF90EF900895CF92DF92EF92B7
:100BF000FF920F931F93CF93DF93CDB7DEB72C9760
:100C00000FB6F894DEBF0FBECDBF0E946102CE01C9
:100C10000196AEECB4E010E0082FF92E2C912111D2
:100C200002C0812F1EC0FD012D912032E1F322234D
:100C3000C1F3DC01ED93FD93CD011F5FDF01219135
:100C4000203209F481C02111F9CF143039F70EC0D8
:100C5000E02FFF2DE80FF11DE80FF11D118210822A
:100C60008F5F8430A9F7112309F457C0E981FA8115
:100C70008081882309F451C080E0EE24E394E80EDB
:100C80000E943E0569877A878B879C87CB84DC84AA
:100C9000C114D10429F481E191E00E946A023DC0AF
:100CA00069857A858EEC94E00E94D21E892B99F595
:100CB000123041F468ED70E08B819C810E94D21E5D
:100CC000892B11F1602F7F2D812FF6010995182FA7
:100CD0008823F1F08AE291E00E946A02812F012EBE
:100CE000000C990B9F931F938FEC91E09F938F9330
:100CF0000E946E1F0F900F900F900F9017FF08C06B
:100D000087EF90E00E946A02CE0109960E94C20518
:100D10000E94610202C08E2DB0CF81E391E00E945B
:100D20006A021092CD041092CE042C960FB6F8945D
:100D3000DEBF0FBECDBFDF91CF911F910F91FF900E
:100D4000EF90DF90CF9008951C92DF017ECF8091CD
:100D5000CD04882389F082ED91E09F938F930E94C8
:100D60006E1FE091CD04E150E093CD04F0E0E55337
:100D7000FB4F13820F900F9008950F931F93CF9303
:100D8000C62F082F880F110BCC2349F060918805DE
:100D900070918905C8010E94321FC150F5CFCF91D3
:100DA0001F910F910895CF93DF938091CB0480FF23
:100DB0009FC0C0E00E946203882301F180918605F4
:100DC000909187050E94F41EC82F8091FA048A3002
:100DD00081F0CD3071F48091CB048C7F8093CB0473
:100DE00086ED91E09F938F930E946E1F0F900F905E
:100DF000B3C0C093FA04CA30E9F6EDCF8091CB04BA
:100E0000C83129F48D7F8093CB04D1E011C0C93162
:100E100029F48D7F8093CB04DFEF0AC0C33039F40F
:100E200082FF02C0897F01C084608093CB04D0E040
:100E30008091CB0481FF17C06C2F8091CC040E945D
:100E4000500D682F80E20E94BD068DE090E00E9468
:100E5000841F8091CB0482FF7FC08AE090E0DF9105
:100E6000CF910C94841F8BED91E09F938F930E9400
:100E70006E1F0F900F90DD2349F08091CC04D1308C
:100E800011F48F5F01C081508093CC048091CC0419
:100E90000E942D0DC82F87FD09C00E9461021C16FB
:100EA00054F46C2F8DE20E94BD0605C08091CC04E5
:100EB0008111E1CFF2CF0E9461028091CB04826068
:100EC0008093CB0449C080918605909187050E944C
:100ED000F41E9091FA049A3081F48093FA0498EE0B
:100EE000980F923070F48091CB0481608093CB0492
:100EF0000E9462038111E7CF2FC08D3071F78AE025
:100F0000EECF8A3019F40E94F505F2CF8F3781F3C6
:100F1000883019F40E94A706EBCF90EE980F9F350A
:100F200038F7E091CD04E73218F791E09E0F9093E7
:100F3000CD04F0E0E553FB4F8383E92FF0E0E55368
:100F4000FB4F13826091880570918905082E000C73
:100F5000990B0E94321FCCCFDF91CF910895CF9390
:100F6000DF93C1E0D0E094E628EC893C10F0885C87
:100F7000FCCF823B20F0322F381B832FF6CF8639EF
:100F800010F0865921C08B3720F096E9981B892FE5
:100F900010C0843610F0845605C08E3438F0392FD6
:100FA000381B832FD195C195D109DFCF823338F01B
:100FB00082530E9407089195819591091DC0873140
:100FC00030F092E3981B892F0E94070815C021E09A
:100FD00030E0813110F420E030E0A9015395889F82
:100FE000900111242C5F3F4F83E0369527958A9519
:100FF000E1F7CA01821B930B9C012C9FC0012D9F1E
:10100000900D3C9F900D1124DF91CF910895CF93C7
:10101000DF93C1E0D0E094E628EC893C10F0885CD6
:10102000FCCF8D3A20F0322F381B832F12C0863927
:1010300010F0865905C087FF09C096E9981B892FD3
:101040000E94AF079195819591093EC0843628F0A2
:101050008456D195C195D109E0CF893420F0392F3C
:10106000381B832FDACF823310F0825305C08C31C6
:1010700030F092E3981B892F0E94AF0725C0889F0C
:10108000A001112496E5949F9001959F300D1124A5
:1010900020583F4F232F332740E058E0421B530B8B
:1010A000282F30E0429FC001439F900D529F900D2A
:1010B000112444E0220F331F4A95E1F7205C3F4F93
:1010C000820F931F892F99279C012C9FC0012D9F70
:1010D000900D3C9F900D1124DF91CF9108958823AE
:1010E00051F084B581110CC08FEF87BD83E884BDBA
:1010F00083E085BD089514BC15BC17BC569A5E9854
:1011000008953C9A882311F0449A089544980895CC
:101110003D9A882311F0459A0895459808958823AB
:1011200011F0439A08954398089598B188E089276B
:1011300088B9089589B18695869580958F700895B0
:101140001F920F920FB60F9211248F939F93EF93DC
:10115000FF938091C600823581F49091F904903418
:1011600061F498E088E10FB6F894A8958093600048
:101170000FBE90936000A895FFCF8093F904E09193
:10118000B70491E09E0F9093B704F0E0EC54FB4F4E
:101190008583903110F01092B7048091B70490913C
:1011A000B60489130EC0811102C08FE001C08150C6
:1011B0008093B7048091B8048F3F09F08F5F8093CC
:1011C000B804E091B704F0E0EC54FB4F1582FF91B6
:1011D000EF919F918F910F900FBE0F901F901895D8
:1011E0001F920F920FB60F9211242F933F934F939C
:1011F0005F936F937F938F939F93AF93BF93EF937F
:10120000FF938091F8048F5F853018F48093F80481
:1012100042C01092F8048091F7048F5F8093F70426
:101220008091F604882341F08091B4048F3F09F047
:101230008F5F8093B4042FC081E08093F60478948C
:10124000A8958091F70480FF03C00E94DA1621C0A0
:1012500081FF03C00E9462181CC082FF03C00E946D
:10126000631817C083FF03C00E94D01812C084FF08
:1012700003C00E94E8180DC085FF03C00E94E91852
:1012800008C086FF03C00E94EA1803C087FD0E94C1
:10129000EB181092F604FF91EF91BF91AF919F91DF
:1012A0008F917F916F915F914F913F912F910F900F
:1012B0000FBE0F901F9018951F920F920FB60F92AE
:1012C00011242F933F934F935F936F937F938F934B
:1012D0009F93AF93BF93CF93DF93EF93FF93CCE7AD
:1012E000D0E08881609179008F700E942E1B8F70F2
:1012F000806E8883FF91EF91DF91CF91BF91AF9185
:101300009F918F917F916F915F914F913F912F911D
:101310000F900FBE0F901F9018951F920F920FB64F
:101320000F9211240F900FBE0F901F9018951F92CF
:101330000F920FB60F9211240F900FBE0F901F90B7
:1013400018951F920F920FB60F9211240F900FBE97
:101350000F901F9018951F920F920FB60F921124A5
:101360000F900FBE0F901F90189580E00895FF9288
:101370000F931F93CF93DF9300D0CDB7DEB79EEFCF
:10138000980F923010F08FEF84C08B01F82EDB01A4
:101390001296ED91FC9113978181811149C01A82B7
:1013A0001982B3E0FB16E9F0D8011296ED91FC9199
:1013B00013978081893671F14CF48636C9F589819D
:1013C0009A81909301058093000550C0843749F1BC
:1013D000863771F589819A81909303058093020580
:1013E00045C0CE0101969F938F938FEC91E09F9320
:1013F0008F93FB0185818F9384818F930E94EB1FD4
:101400000F900F900F900F900F900F90019761F237
:101410008EEF3FC089819A819093050580930405E2
:1014200025C089819A8190930705809306051EC087
:10143000F3E0FF12A8CFD8011496ED91FC91159717
:1014400081818111A0CF808190EDF92EF80E129646
:101450000D911C911397B8018FED91E00E94E41E4D
:10146000892B41F43C9AFF2019F0449A80E011C086
:101470004498FCCFB80182EE91E00E94E41E892BD3
:1014800039F43D9AFF2011F0459AF0CF4598EECF00
:1014900086EF0F900F90DF91CF911F910F91FF90EA
:1014A0000895CF93DF9300D0CDB7DEB78230E9F552
:1014B000FB01CE0101969F938F938FEC91E09F9358
:1014C0008F9383818F9382818F930E94EB1F0F9064
:1014D0000F900F900F900F900F90019741F5898119
:1014E0009A818536910528F5009721F480E00E94C5
:1014F0006F0819C08436910531F481E00E946F08AD
:101500008FEF87BD10C081E00E946F0829813A816A
:101510004FEF429FC001439F900D112464E670E09D
:101520000E94251D67BD80E005C08FEF03C08EEFD0
:1015300001C08DEF0F900F90DF91CF91089580E063
:1015400008951092FC041092FB04089587E008951A
:10155000CF93DF93EC018B818F938A818F93898165
:101560008F9388818F9385EE91E09F938F930E9454
:101570006E1F8D818F938C818F9384EF91E09F9369
:101580008F930E946E1F8E811F928F9383E092E053
:101590009F938F930E946E1F8F811F928F938EE077
:1015A00092E09F938F930E946E1F88851F928F9366
:1015B00089E192E09F938F930E946E1F8985282F67
:1015C000082E000C330B3F938F9385E292E09F939C
:1015D0008F930E946E1F8A85282F082E000C330BD4
:1015E0003F938F9381E392E09F938F930E946E1FAE
:1015F0008DB79EB74E960FB6F8949EBF0FBE8DBFA7
:10160000DF91CF910895CF92DF92EF92FF920F93E7
:101610001F93CF93DF93CDB7DEB72B970FB6F89418
:10162000DEBF0FBECDBF823091F5FB010281138179
:1016300061E472E0C8010E94E41E892B99F480E005
:1016400090E08C010F5F1F4F6FEF0E946725F999A3
:10165000FECFC8010B301105A1F787E492E00E948C
:101660008B1F15C06BE472E0C8010E94E41E892B39
:10167000A1F580E00E949A124BE050E060E070E03B
:1016800089E195E00E944525F999FECFE6CF81E5F5
:1016900092E00E948B1FCE0101967C0100E010E0D9
:1016A0006C01C8010E943D25F70181937F010F5F06
:1016B0001F4F0B301105A9F7C6010E94A80A86E545
:1016C00092E00E948B1F89E195E00E94A80A8AE0BF
:1016D00090E00E94841F80E001C08FEF2B960FB630
:1016E000F894DEBF0FBECDBFDF91CF911F910F9158
:1016F000FF90EF90DF90CF9008954F925F926F929E
:101700007F928F929F92AF92BF92CF92DF92EF9291
:10171000FF920F931F93CF93DF9300D000D01F92BF
:10172000CDB7DEB74B015C01E12CF12C00E011E0FC
:1017300044244A94542C3201CC24CA94DD24DA94F3
:10174000F999FECF45E050E0B801CE0101960E9424
:101750002D2589818F708F30F1F08A819B81AC813A
:10176000BD8188169906AA06BB0628F4881999092E
:10177000AA09BB0908C0A5019401281B390B4A0B13
:101780005B0BDA01C90184159505A605B70518F4A8
:1017900067012C013D010B5F1F4F3FEFE31AF30A76
:1017A000003442E0140761F6C6010F900F900F90CD
:1017B0000F900F90DF91CF911F910F91FF90EF90BD
:1017C000DF90CF90BF90AF909F908F907F906F9061
:1017D0005F904F9008956FEF7FEFCB010C947D0BDE
:1017E00060E070E0CB010C947D0B2F923F924F9202
:1017F0005F926F927F928F929F92AF92BF92CF92A1
:10180000DF92EF92FF920F931F93CF93DF93CDB7A9
:10181000DEB727970FB6F894DEBF0FBECDBF482EB8
:101820005B014F838EE0841508F4E8C08FE0898364
:101830000FB6F8940F92E0910C05F0E040910A0584
:101840004F73CF01982F88279295907F842B6091BA
:101850000B056F7320E4629FB0011124862B972B38
:10186000AC0160E070E080911D0590911E05880F2D
:10187000991FE4FB222720F930E0282B392BC901DE
:10188000A0E0B0E0DC0199278827842B952BA62BBC
:10189000B72B8A839B83AC83BD830F900FBE509080
:1018A000FB048FE38515A0F025E0529E3001112442
:1018B000739427E0529E7001112480ECE81A8DEF9A
:1018C000F80A3090FC0431100CC033243A9409C05B
:1018D000342C70E4E72E72E0F72E612C7724739499
:1018E000512C2F81C22ED12C00E010E0341002C008
:1018F0000023A9F0539480E4581639F025E0620ED5
:10190000711C87E0E80EF11C08C050E4E52E52E09F
:10191000F52E612C77247394512C011101C0252CD4
:1019200021E0200F2E838981282F2F70C80144E0E9
:10193000880F991F4A95E1F7822B8983F999FECF89
:1019400045E050E0B301CE0101960E944525F9998A
:10195000FECFA114B104A9F08F81882391F0460134
:1019600028E0C216D1041CF037E0832E912CA4018C
:10197000B701C5010E94452587E0C81AD108A80C07
:10198000B91C1C141D0444F40F5F1F4F00311105D6
:1019900009F0ACCF20E12E8385E0289E8001112440
:1019A000139549822E81A22EB12CD22CE12CF12C40
:1019B00069816F70C70124E0880F991F2A95E1F7AC
:1019C000682B6983F999FECFC8010E94672581E0E1
:1019D0008D0DD092FB04803421F00B5F1F4FD82E69
:1019E00003C000E011E0D12C8FEFE81AF80AAE1422
:1019F000BF04F1F64092FC04822D01C08FEF2796C0
:101A00000FB6F894DEBF0FBECDBFDF91CF911F910F
:101A10000F91FF90EF90DF90CF90BF90AF909F908D
:101A20008F907F906F905F904F903F902F90089590
:101A30000E94EB0B97FD06C08F5F803418F48093F3
:101A4000FB0402C01092FB048FEF8093FC0440E083
:101A500060E070E080E00C94F50B811107C084E831
:101A600093E00E946A0289E392E014C0823051F050
:101A7000833071F0813091F48FEE91E00E946A0220
:101A80008CE3089589EA91E00E946A0282E3089556
:101A900081E591E00E946A028BE408958FEF08953A
:101AA000CF92DF92EF92FF920F931F93CF93DF932A
:101AB000C82F8EEF8C0F8230C8F48091FF046337FB
:101AC00021F4882381F080E00FC0882369F06B3215
:101AD00021F48F3F49F08F5F07C06D3229F48F3FAB
:101AE00019F0815001C080E28093FF040E949A089F
:101AF0001F928F938CE592E09F938F930E946E1FAD
:101B00000F900F900F900F90C23009F46CC130F419
:101B1000CC2399F0C13009F4DAC0B4C2C33009F45F
:101B2000D1C1C43009F0AEC2CDE0D5E089E1E82EE4
:101B300085E0F82E07E913E093C280910A051F9211
:101B40008F9380910B051F928F9380910C051F92AC
:101B50008F9384E692E09F938F930E946E1F8091F3
:101B60002A051F928F93809129051F928F93809150
:101B700028051F928F93809127051F928F93809144
:101B800026051F928F93809125051F928F9383E7DF
:101B900092E09F938F930E946E1F90916905292F69
:101BA000092E000C330B4DB75EB74A5E5F4F0FB680
:101BB000F8945EBF0FBE4DBF4091060550910705DA
:101BC0001416150614F080E201C083E53F939F933D
:101BD0001F928F9384E992E09F938F930E946E1FD0
:101BE00080915B05282F2F705AE0259F90011124CA
:101BF00044E0359527954A95E1F73F932F9390E080
:101C000054E0959587955A95E1F79F938F938EE9C8
:101C100092E09F938F930E946E1F87B524E6829F68
:101C2000C0011124AC0155278AE0849F9001859F53
:101C3000300D11241F923F931F929F938AEA92E0E6
:101C40009F938F930E946E1F81E692E09F938F93E4
:101C50000E946E1FE091FD04F091FE044DB75EB747
:101C60004C5E5F4F0FB6F8945EBF0FBE4DBFE730BE
:101C7000F105F8F4EC5CFF4F0C94581D87EB92E0F3
:101C800005C08CEB92E002C081EC92E09F938F93B1
:101C90000E946E1F0F900F9018C087EC92E0F6CF55
:101CA0008AEC92E0F3CF84ED92E0F0CF8CED92E0FD
:101CB000EDCFFF93EF9385EE92E09F938F930E9479
:101CC0006E1F0F900F900F900F908AE0DCC18091F3
:101CD00049051F928F93809143051F928F938091A6
:101CE00042051F928F93809126051F928F938091BA
:101CF00041051F928F9380914005282F082E000CDC
:101D0000330B3F938F938CEE92E09F938F930E94BF
:101D10006E1F809148058F93809147058F93809126
:101D200046051F928F938EE093E09F938F930E94BE
:101D30006E1F80915C0590915D050D962AE0829F53
:101D4000A00111242DB73EB72C5E3F4F0FB6F8947B
:101D50003EBF0FBE2DBF2091000530910105121628
:101D6000130614F020E201C023E51F925F931F9237
:101D70009F931F922F938BE193E09F938F930E94E9
:101D80006E1F80915E0590915F050D963AE0839FEE
:101D9000A00111242DB73EB7285F3F4F0FB6F8942E
:101DA0003EBF0FBE2DBF20910205309103051216D4
:101DB000130614F020E201C023E51F925F931F92E7
:101DC0009F931F922F938AE293E09F938F930E9499
:101DD0006E1F4DB75EB7485F5F4F0FB6F8945EBF9A
:101DE0000FBE4DBF6DC0809154058F9380915305F8
:101DF0008F93809152051F928F93809151051F926E
:101E00008F93809125051F928F93809150051F928B
:101E10008F9380914A05282F082E000C330B3F9397
:101E20008F9388E393E09F938F930E946E1F80911E
:101E30003D058F9380913C058F93C9E5D3E0DF93F7
:101E4000CF930E946E1F8091FF041F928F93DF93A8
:101E5000CF930E946E1F80916005909161050D9651
:101E60003AE0839FA00111242DB73EB72A5E3F4F71
:101E70000FB6F8943EBF0FBE2DBF209104053091E0
:101E800005051216130634F02091FF04211102C03B
:101E900020E201C023E51F925F931F929F931F9240
:101EA0002F9380E693E09F938F930E946E1F4DB710
:101EB0005EB7485F5F4F0FB6F8945EBF0FBE4DBF71
:101EC00084E0E1C080915C0590915D050D962AE06B
:101ED000829FA00111242091000530910105121666
:101EE000130634F02091FF04211102C020E201C04A
:101EF00023E51F925F931F929F931F922F938DE173
:101F000093E09F938F930E946E1F80915E05909146
:101F10005F050D963AE0839FA00111242DB73EB7CF
:101F2000285F3F4F0FB6F8943EBF0FBE2DBF2091E4
:101F30000205309103051216130614F020E201C0C9
:101F400023E51F925F931F929F931F922F938AE224
:101F500093E09F938F930E946E1F809160059091F4
:101F600061050D963AE0839FA00111242DB73EB77D
:101F7000285F3F4F0FB6F8943EBF0FBE2DBF209194
:101F80000405309105051216130614F020E201C075
:101F900023E51F925F931F929F931F922F9380E6DA
:101FA00093E09F938F930E946E1F80913D058F93C6
:101FB00080913C058F9389E593E09F938F930E94D6
:101FC0006E1FF894809162059091630510916405ED
:101FD00000916505C0916605D0916705C0906A05BE
:101FE000D0906B05E0906C05F0906D0578949F9310
:101FF0008F938EE693E09F938F930E946E1F0F93B3
:102000001F9387E793E09F938F930E946E1FDF9348
:10201000CF938FE793E09F938F930E946E1F34E6D8
:10202000C39EC0011124892F880F880B8F939F9323
:10203000BB27AF2D9E2D8D2DBF93AF939F938F9375
:1020400089E893E09F938F930E946E1F4DB75EB710
:10205000405E5F4F0FB6F8945EBF0FBE4DBF10C01D
:102060008881998122969F938F931F930F930E944B
:102070006E1F0F900F900F900F90EC16FD0681F7DA
:1020800082E001C08FEFDF91CF911F910F91FF9000
:10209000EF90DF90CF9008950F931F93CF93DF932E
:1020A000EB01209779F0811524E0920758F4F99913
:1020B000FECF8C010F5F1F4F6FEF0E9467252197A6
:1020C000C801EFCFF999FECFDF91CF911F910F910A
:1020D00008956BE070E080E090E00C944C1060E0BC
:1020E00073E080E091E00E944C10EBEFF4E08FEFA2
:1020F00080838FE0818308956F927F928F929F9269
:10210000AF92BF92CF92DF92EF92FF920F931F9305
:10211000CF93DF9300D0CDB7DEB7182F6B0182309D
:1021200008F47CC0DB011296ED91FC91139781813C
:102130008111A1C00081033631F4123009F09DC035
:102140000E946F1096C0023731F0073709F095C032
:10215000143021F094C0123009F460C0FE013196B1
:102160003F01FF93EF939FEC892E91E0992E9F9270
:102170008F92D60115968C9115978F9314968C910A
:102180008F930E94EB1F0F900F900F900F900F9066
:102190000F90019761F4A980BA80A114B4E0BB0646
:1021A00040F47501143038F460E270E02DC08CEF1B
:1021B00069C08BEF67C07F926F929F928F92F601FA
:1021C00087818F9386818F930E94EB1F0F900F90D2
:1021D0000F900F900F900F90019791F469817A8181
:1021E000073729F46F3F710541F038F00BC0CB0180
:1021F00001978115944008F044C0143029F041C083
:102200008AEF40C089EF3EC0073761F4C5010E94E4
:102210006725F999FECF61E070E004C0E12CF12C54
:1022200060E270E08701060F171F8DE9C82E83E07A
:10223000D82EE11424E0F206C0F4E016F106A9F06D
:10224000C7010E943D251F928F93FF92EF92DF926C
:10225000CF920E946E1F8FEFE81AF80A0F900F902E
:102260000F900F900F900F90E4CF8AE090E00E94C3
:10227000841F80E007C08FEF05C08EEF03C08DEF95
:1022800001C088EF0F900F90DF91CF911F910F91B8
:10229000FF90EF90DF90CF90BF90AF909F908F9086
:1022A0007F906F9008952F923F924F925F926F921E
:1022B0007F928F929F92AF92BF92CF92DF92EF92D6
:1022C000FF920F931F93CF93DF93CDB7DEB72C9779
:1022D0000FB6F894DEBF0FBECDBF823069F4FB01AC
:1022E0006281738181E492E00E94E41E892B09F0EF
:1022F00007C10E946F1002C1823008F001C10E9424
:10230000F00B6C0197FDEDC0782EF5E08F9F8001FA
:1023100011241395612C5E0128E0A20EB11C84E605
:10232000582E9DEF292E93E0392E27EF822E23E0A1
:10233000922EF999FECF45E050E0B801C5010E9408
:102340002D253885232F2F702F3009F4B9C06394C1
:1023500049855A856B857C85942F9F731F929F9327
:10236000DB01CA01E6E0B695A79597958795EA95B2
:10237000D1F7982F9F731F929F93DB01CA01FCE056
:10238000B695A79597958795FA95D1F7982F9F7150
:102390001F929F93A1E17695679557954795AA95CA
:1023A000D1F75F934F93832F90E0B4E09595879595
:1023B000BA95E1F79F938F931F922F931F927F926D
:1023C0008AEA93E09F938F930E946E1F0FB6F89452
:1023D000DEBF0FBECDBFF999FECF97E0799EB00169
:1023E0001124605C7D4F47E050E0CE0101960E94D1
:1023F0002D258885813069F018F08430E0F517C00C
:10240000E2EDF3E0FF93EF930E946E1F0F900F90A9
:1024100053C089811F928F938FED93E09F938F9389
:102420000E946E1F0F900F900F900F9045C0EB8091
:102430004C80E59C70011124F0E8EF0EF11C833014
:1024400031F49F928F920E946E1F0F900F901F92F7
:10245000FF921F924F928A811F928F9389811F92C0
:102460008F933F922F920E946E1F0FB6F894DEBF9B
:102470000FBECDBF21C0EAE1F4E0FF93EF930E94CD
:102480006E1FCE0101967C010F900F90F701819194
:102490007F011F928F938EE194E09F938F930E9410
:1024A0006E1F0F900F900F900F90EA14FB0471F7BE
:1024B00089E290E00E94841F8AE090E00E94841FDD
:1024C0007394FFE3F71518F00B5F1F4F03C000E094
:1024D00011E0712C872D90E0C816D90609F029CF9C
:1024E00001C0612C1F926F9284E294E09F938F93BE
:1024F0000E946E1F0F900F900F900F9080E001C010
:102500008FEF2C960FB6F894DEBF0FBECDBFDF91D4
:10251000CF911F910F91FF90EF90DF90CF90BF90E0
:10252000AF909F908F907F906F905F904F903F9073
:102530002F900895CF93DF93CDB7DEB72B970FB6CB
:10254000F894DEBF0FBECDBF882309F441C0F999CE
:10255000FECF4BE050E060E070E0CE0101960E94BB
:102560002D2589819A81AB81BC8181309240A34025
:10257000B10571F58BE0FE013196A9E1B5E001905E
:102580000D928A95E1F780911D0590911E050196A7
:1025900090931E0580931D0597FF08C00E946F1041
:1025A00081E090E090931E0580931D0560911D05CC
:1025B00070911E0584E090E00E947525F999FECF88
:1025C00080911F05883020F58DE080931F0520C085
:1025D00081E092E0A3E0B0E08093190590931A05A2
:1025E000A0931B05B0931C0581E090E090931E051D
:1025F00080931D058DE080931F051092200585E9CD
:102600008093210580E48093220588E5809323054B
:102610002B960FB6F894DEBF0FBECDBFDF91CF91E2
:102620000895CF93DF93CDEFD4E081E7FE011192BF
:102630008A95E9F781E00E949A120E94180D19828A
:1026400018828DE280936805569ADF91CF910895A4
:10265000FC0180819181873E23E0920710F401966E
:102660001CC01182108282818B3318F48F5F8283A9
:102670000895128283818B3318F48F5F83830895CA
:10268000138284818F3F19F08F5F848308951482B1
:102690008BE38383828387EE93E091838083089525
:1026A0004F925F926F927F928F929F92AF92BF9262
:1026B000CF92DF92EF92FF92CF93DF93CDB7DEB749
:1026C00027970FB6F894DEBF0FBECDBF0FB6F894B4
:1026D0000F9280915E0590915F0580589F4F9F8378
:1026E00080916005909161059E838D8380913C056A
:1026F00090913D059C838B830F900FBE8E8180321D
:1027000090F48E81882379F08B819C8197FD0BC09A
:102710008B819C81883C910534F48F81882319F04A
:102720008E8181110DC01092630510926205109286
:102730006505109264051092670510926605D7C072
:102740008E81803188F09E812D8130E02E5F3F4F59
:10275000A5E035952795AA95E1F788E0989FA00117
:102760001124822F842B21C08E819E81883078F0A5
:102770004D8150E04C5F5F4FF4E055954795FA95D9
:10278000E1F780E1989F90011124842F0DC02D81E5
:1027900030E0285F3F4FE3E035952795EA95E1F774
:1027A00040E2949FC0011124822B4F81489FC001B9
:1027B00011249A838983A980BA808B819C818B8123
:1027C0009C810E94AF077C018B819C810E9407083D
:1027D000AC019501D7010E945E1D6B017C01DA01FD
:1027E0000E945E1D4B015C018E81803178F08981F1
:1027F0009A8163E0969587956A95E1F79A83898334
:10280000412C78E0572E612C712C20C08E818830AD
:1028100078F089819A8144E0969587954A95E1F709
:102820009A838983412C50E1552E612C712C0EC066
:1028300089819A8125E0969587952A95E1F79A8373
:102840008983412C30E2532E612C712CC701B601D3
:10285000A30192010E94391D69017A01C501B401E9
:10286000A30192010E94391D89819A8197FD03C0BD
:1028700089819A8102C08FEF9FE7909363058093CF
:102880006205C11480E8D806E104F1047CF4C114A7
:1028900080E8D8068FEFE806F80634F4C12C80E80B
:1028A000D82EEE24EA94FE2CC60102C08FEF9FE7DB
:1028B0009093650580936405211580E838074105EC
:1028C00051057CF4DA01C901811520E892072FEF48
:1028D000A207B20724F480E090E8AFEFBFEF9C01BD
:1028E00002C02FEF3FE730936705209366052796D8
:1028F0000FB6F894DEBF0FBECDBFDF91CF91FF9032
:10290000EF90DF90CF90BF90AF909F908F907F908F
:102910006F905F904F900895CF92DF92EF92FF9269
:102920000F931F93CF93DF93CDB7DEB76B970FB69F
:10293000F894DEBF0FBECDBF60E080E00E94DF04F0
:1029400010916905C12E012E000CDD08F09068057C
:1029500000915A050E949A08DF921F931F92FF92DE
:102960001F920F931F928F938AE394E09F938F930C
:102970001F9285E18F938E010F5F1F4F1F930F935F
:102980000E94BB1FC8010E942A05F8010190002087
:10299000E9F731977F01E01AF10A0FB6F894DEBF2C
:1029A0000FBECDBFE091FD04F091FE04E730F105CC
:1029B00010F5E55CFF4F0C94581D6BE474E0C80102
:1029C0000E94ED1EF12C84E190E06C01CE18D1083C
:1029D00015C060E574E0F3CF65E574E0F0CF6BE51A
:1029E00074E0EDCF63E674E0EACF6BE674E0E7CF26
:1029F00063E774E0E4CF6BE774E0E1CFF8010190A6
:102A00000020E9F73197E01BF10B8F2D90E0960144
:102A10002E1B3F0B8217930730F480E290E00E9458
:102A2000EE04F394EBCFC8010E942A0560E081E038
:102A30000E94DF0480916005909161050D964AE047
:102A4000849F900111241F923F931F929F938DE7C3
:102A500094E09F938F931F9285E18F931F930F9321
:102A60000E94BB1FC8010E942A05809185050FB6F0
:102A7000F894DEBF0FBECDBF8F3010F48F5F01C062
:102A800080E080938505869586958230A9F1833014
:102A900009F45FC08130C1F080915C0590915D05C3
:102AA0000D964AE0849F900111241F923F931F923C
:102AB0009F9380915E0590915F0580589F4F1F9274
:102AC0009F9387E894E035C0809165058F9380914E
:102AD00064058F93809163058F93809162058F9336
:102AE00086E994E09F938F931F9285E18F931F93C4
:102AF0000F930E94BB1F26C0F89480916A059091A5
:102B00006B05A0916C05B0916D05789444E6849FA7
:102B100090011124232F220F220B2F933F93892FF3
:102B20009A2FAB2FBB27BF93AF939F938F938BE8C5
:102B300093E09F938F931F9285E18F931F930F9341
:102B40000E94BB1F0FB6F894DEBF0FBECDBF8EE054
:102B500054C086E0EEEAF4E0DE01569601900D9254
:102B60008A95E1F78091FF04882311F083E58E8B2D
:102B700080910005909101051816190614F486E657
:102B80008F8B80910205909103051816190614F495
:102B900086E7888F8091060590910705181619061B
:102BA00014F484E7898F8091040590910505181627
:102BB000190614F489E68A8FCE0146960E942A05EA
:102BC00080910A051F928F9380910B051F928F931E
:102BD00080910C051F928F9381EA94E09F938F93CD
:102BE0001F9285E18F931F930F930E94BB1F0FB617
:102BF000F894DEBF0FBECDBF89E0D12CE82E880F40
:102C0000FF08F80101900020E9F73197E01BF10B74
:102C10008D2D90E097012E1B3F0B8217930730F408
:102C200080E290E00E94EE04D394EBCFC8010E94B2
:102C30002A056B960FB6F894DEBF0FBECDBFDF91AD
:102C4000CF911F910F91FF90EF90DF90CF9008955B
:102C50002091830530918405A90193E0569547950D
:102C60009A95E1F7241B350B90E2899F200D311DC9
:102C70001124309384052093830520583F4F832FE0
:102C80000895811105C010922101109220011FC0EA
:102C900020912001309121012115310539F480E086
:102CA00094E6909321018093200111C0A90196E040
:102CB000569547959A95E1F7241B350B94E0899F2B
:102CC000200D311D1124309321012093200180918A
:102CD0002001909121010895811105C010921F01DA
:102CE00010921E0124C020911E0130911F01211558
:102CF000310539F480E096EE90931F0180931E0118
:102D000016C0A90196E0569547959A95E1F7241BC0
:102D1000350B8B3A30F496E0899F200D311D11243C
:102D200002C021503C4F30931F0120931E0180911F
:102D30001E0190911F010895009729F410928205B9
:102D40001092810532C020918105309182052115B4
:102D5000310539F481E090E09093820580938105FC
:102D600024C06091210570E0811542E0940710F0C5
:102D70008FEF91E0689FA001699F500D789F500DE3
:102D80001124CA01880F892F881F990B9195A901D9
:102D900064E0569547956A95E1F7241B350B280F9B
:102DA000391F309382052093810580918105909190
:102DB000820508951F93CF93DF9388E095E00E94EA
:102DC000281380917F0590918005009729F0019745
:102DD0009093800580937F05C091FD04D091FE04FF
:102DE0000E949A0890E08A309105F0F4FC01EE5BB5
:102DF000FF4F0C94581D10925A05C1E0D0E016C048
:102E000088E001C089E080935A0510C08AE0FBCFBA
:102E10008CE0F9CF8DE0F7CF8EE0F5CF8FE0F3CFE8
:102E200080E1F1CF81E1EFCF10925A0580916905E1
:102E3000825390916805181664F4859581958F5E8C
:102E400088300CF480E080935A059D3239F484E593
:102E500003C0943519F48DE280936805809168056C
:102E6000863411F410925A0580915A052FEF829FF3
:102E7000C001112466E070E00E94251DCB0105967B
:102E80006AE070E00E94251D162F6D3008F41DE0E9
:102E900010925905C730D10508F0F5C0FE01E45B7A
:102EA000FF4F0C94581D80E00E94810880E00E9432
:102EB0006F0817BC10925A0511C081E00E9481086A
:102EC00081E08093590580E00E946F0817BC109242
:102ED0005A050E949A08882309F4D7C08CED95E022
:102EE0009093800580937F05C2E0D0E0CEC080E063
:102EF0000E94810881E00E946F088FEF87BD80915A
:102F00007F0590918005892B09F0BFC007C080E044
:102F10000E94810881E00E946F0817BD80915B05C7
:102F2000803A70F58837A0F5AEC080E00E94810835
:102F300081E00E946F0817BD80915B05803A00F523
:102F4000883730F5803408F49EC088EE93E0909383
:102F5000800580937F05C5E0D0E097C080E00E94A7
:102F6000810881E00E946F0817BD20915B05809168
:102F70007F0590918005203A30F0892B09F085C0BB
:102F8000C3E0D0E082C0283730F0892B09F07DC043
:102F9000C4E0D0E07AC0203478F0892B09F075C005
:102FA00081E00E94810884EF91E0909380058093F6
:102FB0007F05C6E0D0E069C0892B09F464C065C014
:102FC00081E00E946F0817BD80915B05803A60F038
:102FD00080917F0590918005892B59F580E00E94B2
:102FE0008108C3E0D0E025C0883760F080917F057C
:102FF00090918005892BE9F480E00E948108C4E06B
:10300000D0E017C0803450F081E00E94810884EF46
:1030100091E09093800580937F050BC080917F05A0
:1030200090918005892B29F480E00E948108C0E0FE
:10303000D0E08AE795E00E94281380917E05809376
:10304000550580917D058093560520916A05309144
:103050006B053093580520935705C630D10511F004
:1030600088E00EC020917A0530917B05232B69F40E
:1030700090917C05911109C08370813031F484E016
:103080000E94390202C0C0E0D0E08091FD0490911E
:10309000FE04C817D90791F0C630D10559F4109233
:1030A0006A0510926B0510926C0510926D0582E016
:1030B0000E943902D093FE04C093FD04DF91CF91AA
:1030C0001F9108950895809146050E94411690939E
:1030D0004805809347050097F9F0A0E0B0E09456CA
:1030E000A109B10980382FEF9207A207B2073CF07F
:1030F00080389105A105B1051CF08FE701C080E87B
:1031000087FD8F5F859520E032E3A901481B5109B7
:1031100087FD5395CA0102C080E090E02091000530
:10312000309101051216130614F4922F88279C0182
:10313000205831432130314010F026E405C0209161
:103140006805263419F42DE22093680590935D05F7
:1031500080935C05809149050E946C1620910205C0
:10316000309103051216130614F4922F80E0809319
:103170005E0590935F0580915305909154050E94E0
:103180009C1620910405309105051216130614F4BF
:10319000922F80E080936005909361050C9450130A
:1031A000809179058F5F8E3718F48093790502C07E
:1031B0001092790580915905811109C08091790596
:1031C0008E3310F481E001C080E00C948F080895E4
:1031D000089508950895809178058F5F853018F4DB
:1031E0008093780508951092780581E00C94390257
:1031F000FC01DB0195819F3F09F09F5F9583218151
:10320000421708F4242F21838281841708F4842F25
:103210008283808181113EC09038E9F411962C930D
:103220001197928112969C93129722819181921705
:1032300050F4422F50E0292F30E0BA01621B730B8B
:103240006032710514F49FEF0DC0240F351F3695C1
:1032500027952C9308959F3F49F411961C9211973E
:1032600012961C929183128215820895913818F15A
:103270008C9190E050E09C01285F3F4F2417350768
:1032800014F481E005C0089748175907A4F48FEF9C
:103290008083EACF97FF11C0108211961C9211977C
:1032A00012961C92129714961C921E9213978FEFEF
:1032B00081831282158280E008959B3211F443834A
:1032C00003C09B3309F444833C91181624F443173C
:1032D00090F78FEF03C0341770F781E0808381305F
:1032E000D1F5903638F414961C921E92139780E80C
:1032F0008C932BC011962C931197828112968C93EC
:1033000012972281818190E0820F911D9695879579
:103310008C938281883F18F42181293050F4838175
:103320002481281760F490E0821B9109880F991F6F
:1033300008C0281720F490E0821B910902C080E0A9
:1033400090E014969C938E93139715828FEF818350
:10335000128281E008950895209177052F3F09F0AA
:103360002F5F2093770590911D01891708F4982FFE
:1033700090931D0160917605681708F4682F60939B
:10338000760540914005411148C02038C9F490931A
:10339000420560934305961740F470E0292F30E012
:1033A000CB01821B930B809724F48FEF80931D0138
:1033B0000FC0260F371F36952795209341057CC0F7
:1033C0002F3F59F4109242051092430520931D019E
:1033D00010927605109277056FC0213808F46CC002
:1033E0002091410530E090E0B901685F7F4F681798
:1033F000790734F481E0809340051092770541C04D
:1034000028503109821793070CF056C08FEF809334
:103410004005109277054FEF4FC027FF12C0109262
:1034200040051092420510924305109246051092F5
:1034300049058FEF80931D01109276051092770554
:1034400009C03091410514161CF4831728F002C0FE
:103450003817C8F040E030C04FEF4093400541308E
:1034600059F5203390F4109246051092490580E8F2
:1034700080934105109277058FEF80931D01109284
:10348000760541E019C041E0E8CF20934605961744
:1034900018F4862F891B01C080E080934905909322
:1034A000420560934305292F30E0260F311D3695E4
:1034B000279520934105DECF842F089590911C011C
:1034C000891708F4982F90931C016091750568176F
:1034D00008F4682F609375054091400520913E05E2
:1034E00030913F05411160C050914105511123C0F9
:1034F0002F3F310501F1F8F09093420560934305A9
:10350000961740F470E0292F30E0CB01821B930B1B
:10351000809754F48FEF80931C01109275051092E0
:103520003F0510923E0598C0260F371F3695279508
:103530002093410591C0211592E0390780F0109247
:103540004205109243058FEF80931C011092750580
:1035500010923F0510923E05109241057DC02F3F0D
:10356000310509F008F478C0252F30E090E0B9016A
:10357000685F7F4F6817790744F481E080934005C6
:1035800010923F0510923E054AC02850310982171B
:1035900093070CF061C08FEF8093400510923F05B8
:1035A00010923E054FEF58C0211552E03507A0F0AC
:1035B0001092400510924205109243051092460564
:1035C000109249058FEF80931C011092750510929F
:1035D0003F0510923E0509C05091410514161CF498
:1035E000851728F002C05817E0F040E035C04FEFD3
:1035F00040934005413081F520363105A0F410920A
:1036000046051092490580E88093410510923F05D8
:1036100010923E058FEF80931C011092750541E0DA
:103620001BC041E0E5CF36952795209346059617B8
:1036300018F4862F891B01C080E080934905909380
:10364000420560934305292F30E0260F311D369542
:10365000279520934105DACF842F0895CF92DF92EA
:10366000EF92FF920F931F9320913E0530913F05FB
:10367000211592E0390730F42F5F3F4F30933F051B
:1036800020933E050091640510916505012E000C04
:10369000220B330BC0907105D0907205E09073053A
:1036A000F09074050C0D1D1D2E1D3F1D6801790144
:1036B00098E6C91A94ECD90A91E6E90A98E0F90A61
:1036C000C0927105D0927205E0927305F092740574
:1036D000F7FE09C0009371051093720520937305DE
:1036E0003093740514C000916A0510916B05209108
:1036F0006C0530916D050F5F1F4F2F4F3F4F0093AB
:103700006A0510936B0520936C0530936D0520912D
:103710006F05309170052F37310530F42F5F3F4F23
:103720003093700520936F05909124059F5F9093CF
:103730002405823009F4A0C030F4882311F18130CF
:1037400009F470C0DFC0873009F499C0883009F4EB
:1037500099C0863009F0D6C06093280520911F05D6
:103760008091200590E0629F800D911D112434E02E
:10377000969587953A95E1F70E94281680935B0508
:10378000C1C02091FF04222329F1E0913B05F0E024
:103790003196EF70FF27E350FB4F86A590E08C55E4
:1037A0009109289FB001299F700D112477FF02C055
:1037B000615E7F4F45E0759567954A95E1F76058E2
:1037C0007F4F77FD06C06F3F710521F01CF06FEF52
:1037D00001C060E060932505462F60E575E08AE44E
:1037E00095E00E94F81818160CF070C020916F0533
:1037F00030917005C9010197823D910530F40B9716
:1038000097FF05C088539F4F02C08FEF9FEF9093A3
:103810003D0580933C0580E090E89093700580938F
:103820006F0554C060932605E0913B0581E08E0F43
:1038300080933B05F0E0E350FB4F66A7803110F02A
:1038400010923B05862F0E945E1A18167CF4809118
:103850006F0590917005409724F010923D051092ED
:103860003C051092700510926F054CC0882309F436
:1038700049C010926E0546C06093270543C060930F
:10388000290540C060932A058091230540912205B7
:103890002091060530910705121613069CF070E082
:1038A000681B710987FD73954603C001479F900D02
:1038B000112497FD0F9624E0959587952A95E1F7B9
:1038C000875E01C0822F809369051CC080916E05C0
:1038D0008F5F80936E0580FF13C086958E5F833067
:1038E00059F020F4823061F482E00DC0843031F070
:1038F000853031F488E007C086E005C087E003C06A
:1039000081E001C080E01F910F91FF90EF90DF9068
:10391000CF90089514BE0FB6F894A89580916000DA
:10392000886180936000109260000FBE0E94520474
:103930000E94A10A0E94111382E291E09F938F934B
:1039400085E291E09F938F938EE291E09F938F9316
:103950008AE391E09F938F9384E591E09F938F9307
:103960000E946E1F8DED91E00E948B1F80E691E01A
:103970009F938F930E946E1F8091C9042DB73EB70D
:10398000245F3F4F0FB6F8943EBF0FBE2DBF81306E
:1039900069F485E691E00E948B1F8FE791E00E9419
:1039A0002A058BE891E00E942A0510C0282F082ED6
:1039B000000C330B3F938F9384E991E09F938F9397
:1039C0000E946E1F0F900F900F900F9078940E949E
:1039D000EE1C0E94F01C0E94F11CF9CF0C94D3063F
:1039E0000895CF93DF931F92CDB7DEB781E00E9499
:1039F000490281110E948C1482E00E9449028823AE
:103A000051F080915A05898341E0BE016F5F7F4F7D
:103A100081E00E94F50B84E00E944902882331F086
:103A200044E065E575E082E00E94F50B88E00E94C5
:103A30004902882331F044E065E575E083E00E94A7
:103A4000F50B0F90DF91CF91089597FB072E16F499
:103A5000009407D077FD09D00E94651D07FC05D0B2
:103A60003EF4909581959F4F0895709561957F4F95
:103A70000895052E97FB1EF400940E94501D57FDDB
:103A800007D00E94791D07FC03D04EF40C94501D02
:103A900050954095309521953F4F4F4F5F4F08957A
:103AA00090958095709561957F4F8F4F9F4F0895AA
:103AB000EE0FFF1F0590F491E02D09940E949B1DCD
:103AC000B7FF0895821B930B0895AA1BBB1B51E1FE
:103AD00007C0AA1FBB1FA617B70710F0A61BB70B7E
:103AE000881F991F5A95A9F780959095BC01CD0123
:103AF0000895A1E21A2EAA1BBB1BFD010DC0AA1F2F
:103B0000BB1FEE1FFF1FA217B307E407F50720F046
:103B1000A21BB30BE40BF50B661F771F881F991FC1
:103B20001A9469F760957095809590959B01AC010A
:103B3000BD01CF010895A29FB001B39FC001A39F13
:103B4000700D811D1124911DB29F700D811D1124D6
:103B5000911D0895A0E0B0E0E0EBFDE10C94962506
:103B60005C016B017A016115710519F0FB0191830C
:103B70008083E114F10429F0C7010297839708F0CC
:103B8000E5C0E5012196F5011081812F90E00E94AA
:103B9000C01E892B11F05E01F4CF1D3229F421964D
:103BA000F501118101E007C01B3221F4E5012296E5
:103BB000F501118100E0E114F10409F1F0E1EF16E3
:103BC000F10429F43FC010E3E114F10421F128E0ED
:103BD000E216F10401F154F4E2E0EE16F10421F5ED
:103BE000812C912CA12CB0E4BB2E3EC0FAE0EF1644
:103BF000F10439F020E1E216F104B1F430C01033E1
:103C000019F1FAE0EF2EF12CACEC8A2E982CA82CAE
:103C1000ACE0BA2E29C078E0E72EF12C812C912C53
:103C2000A12CE0E1BE2E20C060E070E080E090E8D2
:103C300097010F2C000C440B550B0E94791D490174
:103C40005A0112C0103359F488818F7D883509F0EC
:103C5000BACF19812296026080E1E82EF12C812CE6
:103C6000912CA12C68E0B62E40E060E070E0CB0122
:103C700027010F2C000C66087708FE0150ED352E49
:103C8000310E29E0231570F42FEB210F2A3118F49F
:103C900039EC332E06C02FE9210F2A3118F529EA15
:103CA000322E310E232D30E02E153F05DCF447FD7A
:103CB00016C086169706A806B90670F0A3019201F1
:103CC0000E947A25630D711D811D911D6130710562
:103CD000810520E8920710F04FEF01C041E02196E6
:103CE0001081CBCF202F2170C114D10471F0442357
:103CF00029F02197F601D183C08307C001FF19C0C5
:103D00002297F601D183C08314C047FF12C022233B
:103D100029F060E070E080E090E804C06FEF7FEF92
:103D20008FEF9FE722E230E030938D0520938C05E2
:103D300009C0222381F090958095709561957F4F01
:103D40008F4F9F4F462F372F282F12C040E030E073
:103D500020E090E00DC097FFF5CF82E290E09093D5
:103D60008D0580938C056FEF7FEF8FEF9FE7EACF94
:103D7000642F732F822FCDB7DEB7E1E10C94B2250B
:103D800091110C949224803219F089508550C8F713
:103D90000895FB01DC0102C005900D924150504096
:103DA000D8F70895FB01DC018D9105908019011071
:103DB000D9F3990B0895FC0105900020E9F780954F
:103DC00090958E0F9F1F0895FB01DC018D9101904E
:103DD00080190110D9F3990B0895FB01DC010190C2
:103DE0000D920020E1F70895CF93DF93EC012B8132
:103DF00020FF33C026FF0AC02F7B2B838E819F813B
:103E000001969F838E838A8190E029C022FF0FC094
:103E1000E881F9818081082E000C990B009719F434
:103E200020622B831AC03196F983E8830EC0EA859D
:103E3000FB85099597FF09C02B81019611F080E25F
:103E400001C080E1822B8B8308C02E813F812F5FD0
:103E50003F4F3F832E83992702C08FEF9FEFDF9163
:103E6000CF9108950F931F93CF93DF93FB0123818D
:103E700021FD03C08FEF9FEF2CC022FF16C04681AB
:103E80005781248135814217530744F4A081B181C1
:103E90009D012F5F3F4F318320838C932681378193
:103EA0002F5F3F4F3783268314C08B01EC01FB014A
:103EB0000084F185E02D0995892BE1F6D80116964D
:103EC0008D919C911797019617969C938E931697B8
:103ED000CE01DF91CF911F910F910895A0E0B0E046
:103EE000E4E7FFE10C94A525AE014B5F5F4FFA01BB
:103EF00061917191AF0180918805909189050E942F
:103F00000420E2E00C94C125609188057091890538
:103F10000E94321F08950F931F93CF93DF93E09178
:103F20008805F0918905238121FF1BC08C01D0E019
:103F3000C0E0F80181918F01609188057091890539
:103F4000DB011896ED91FC911997882331F00995C2
:103F5000892B79F3DFEFCFEFECCF8AE00995892B3E
:103F600019F08FEF9FEF02C08D2F9C2FDF91CF9123
:103F70001F910F910895AEE0B0E0E1ECFFE10C94E9
:103F8000A3250D891E898F89988D26E02C831A839D
:103F9000098397FF02C080E090E801979E838D839C
:103FA000AE01455E5F4F698D7A8DCE0101960E940C
:103FB00004204D815E8157FD0AC02F81388542174C
:103FC00053070CF49A01F801E20FF31F10822E96AA
:103FD000E4E00C94BF25AEE0B0E0E1EFFFE10C942B
:103FE000A52585E08C838B899C899A838983AE0182
:103FF000495E5F4F6D897E89CE0101960E948123C3
:104000002E96E2E00C94C125ABE0B0E0EAE0F0E2ED
:104010000C9495256C017B018A01FC0117821682A4
:10402000838181FFCCC1CE0101963C01F6019381D1
:10403000F70193FD859193FF81917F01882309F416
:10404000BAC1853239F493FD859193FF81917F0147
:10405000853229F4B60190E00E94321FE7CF912CFF
:10406000212C312CFFE1F315D8F08B3279F038F4A4
:10407000803279F08332A1F4232D20611DC08D326E
:1040800061F0803369F4232D216016C0832D826096
:10409000382EE32DE4603E2E2AC0F32DF8601DC0BB
:1040A00037FC2DC020ED280F2A3040F08E32B9F4B5
:1040B00036FC81C1232D2064322E19C036FE06C085
:1040C0008AE0989E200D1124922E11C0EAE02E9EC7
:1040D000200D1124222EF32DF0623F2E08C08C36C5
:1040E00021F4832D8068382E02C0883641F4F70110
:1040F00093FD859193FF81917F018111B3CF982F1B
:104100009F7D9554933028F40C5F1F4F9FE3998354
:104110000DC0833631F0833771F0833509F059C013
:1041200021C0F801808189830E5F1F4F882483940A
:10413000912C530113C02801F2E04F0E511CF801DD
:10414000A080B18036FE03C0692D70E002C06FEF21
:104150007FEFC5010E94AB244C018201F32DFF7754
:104160003F2E16C0280122E0420E511CF801A0800B
:10417000B18036FE03C0692D70E002C06FEF7FEFA3
:10418000C5010E94A0244C01F32DF0683F2E82014E
:1041900033FC1BC0822D90E088169906B0F4B6015E
:1041A00080E290E00E94321F2A94F4CFF50137FCA0
:1041B000859137FE81915F01B60190E00E94321F28
:1041C00021102A9421E0821A91088114910471F738
:1041D000E8C0843611F0893641F5F80137FE07C092
:1041E00060817181828193810C5F1F4F08C0608163
:1041F0007181072E000C880B990B0E5F1F4FF32D5A
:10420000FF763F2E97FF09C0909580957095619538
:104210007F4F8F4F9F4FF0683F2E2AE030E0A30181
:104220000E94CF24882E861845C0853731F4232D6F
:104230002F7EB22E2AE030E025C0932D997FB92E33
:104240008F36C1F018F4883579F0B5C0803719F091
:10425000883721F0B0C0E92FE061BE2EB4FE0DC05A
:10426000FB2DF460BF2E09C034FE0AC0292F266042
:10427000B22E06C028E030E005C020E130E002C0E8
:1042800020E132E0F801B7FE07C0608171818281D0
:1042900093810C5F1F4F06C06081718180E090E0C8
:1042A0000E5F1F4FA3010E94CF24882E8618FB2D7E
:1042B000FF773F2E36FE0DC0232D2E7FA22E8914B0
:1042C00058F434FE0BC032FC09C0832D8E7EA82E1C
:1042D00005C0B82CA32C03C0B82C01C0B92CA4FE77
:1042E0000FC0FE01E80DF11D8081803321F49A2D6D
:1042F000997EA92E09C0A2FE06C0B394B39404C04F
:104300008A2D867809F0B394A3FC11C0A0FE06C0E4
:10431000B21488F4280C922C9B180EC0B21460F4CE
:10432000B60180E290E00E94321FB394F7CFB2143E
:1043300018F42B1802C0982C212CA4FE10C0B60132
:1043400080E390E00E94321FA2FE17C0A1FC03C0D0
:1043500088E790E002C088E590E0B6010CC08A2DA5
:10436000867859F0A1FE02C08BE201C080E2A7FC72
:104370008DE2B60190E00E94321F891438F4B60134
:1043800080E390E00E94321F9A94F7CF8A94F30161
:10439000E80DF11D8081B60190E00E94321F81106E
:1043A000F5CF222009F442CEB60180E290E00E94CF
:1043B000321F2A94F6CFF6018681978102C08FEFD3
:1043C0009FEF2B96E2E10C94B12520FD09C0FC0182
:1043D00023FD05C022FF02C07383628351834083A3
:1043E000089544FD17C046FD17C0AB01BC01DA01BA
:1043F000FB01AA0FBB1FEE1FFF1F1094D1F74A0F3E
:104400005B1F6E1F7F1FCB01BA01660F771F881FCE
:10441000991F09C033E001C034E0660F771F881F81
:10442000991F3150D1F7620F711D811D911D0895A3
:104430000F931F93CF93DF938C01C8010E94F41E4A
:10444000EC0197FD08C00E94C01E892BB1F7B8018E
:10445000CE010E94B624CE01DF91CF911F910F9122
:1044600008958F929F92AF92BF92EF92FF920F9317
:104470001F93CF93DF938C01D62F7A01B22E0E9427
:10448000F41E9C0133272B32310531F02D323105DA
:1044900061F48B2D8068B82ED15011F480E068C093
:1044A000C8010E94F41E97FDF9CFCB2DCD7F2B2D97
:1044B000207309F58033F9F4AA24AA94AD0E09F407
:1044C00043C0C8010E94F41E97FD3EC09C012F7D91
:1044D00033272835310549F4C264D250A9F1C80107
:1044E0000E94F41E97FF07C02FC0B6FE02C0C26034
:1044F00001C0C261DA2D812C912C540120ED280FCE
:10450000283080F0C4FF04C0B8010E94B62419C04E
:104510002A3040F0C6FFF8CF2F7D3FEE320F363005
:1045200098F727504C2FC501B4010E94F1214B018F
:104530005C01C260D15059F0C8010E94F41E97FF7F
:10454000DDCFC1FD04C0AACF812C912C5401C7FF3F
:1045500008C0B094A09490948094811C911CA11CDC
:10456000B11C2C2FB501A401C7010E94E52181E0F7
:10457000DF91CF911F910F91FF90EF90BF90AF907F
:104580009F908F900895A0E2B0E0E9ECF2E20C94E5
:1045900098255C01962E7A01F9018E010F5F1F4F5D
:1045A000680180E2D8011D928A95E9F7D50113963A
:1045B0008C9080E090E0612C712C30E061E070E044
:1045C00083FC259183FE21918F01522E211103C07E
:1045D00080E090E092C02E3511F4009751F1432F06
:1045E00050E0481759073CF42D3559F12D3219F494
:1045F000772009F103C0772009F46AC0452D46955C
:1046000046954695D601A40FB11D452D47708B01E7
:1046100002C0000F111F4A95E2F7A8015C91452BDB
:104620004C93651459F0561410F45394E7CF5A94F0
:10463000E5CF31E004C07724739401C0712C01965A
:10464000BFCF772019F08E8180628E83311103C035
:104650008824839417C0F6019E012F5D3F4F80810F
:10466000809581932E173F07D1F7F2CFE114F10423
:1046700029F0D7018C93F70131967F019A94812C10
:104680009920F9F0C5010E94F41E97FD18C0FC01A5
:10469000FF2723E0F595E7952A95E1F7EC0DFD1D41
:1046A000208130E0AC014770552702C03595279531
:1046B0004A95E2F720FDDACFB5010E94B6248110B9
:1046C00087CFE114F10411F0D7011C92C80115C085
:1046D000422F469546954695D601A40FB11D422F0F
:1046E00047708B0102C0000F111F4A95E2F7A80125
:1046F0005C91452B4C93622EA2CFA096EFE00C94D8
:10470000B425A0E0B0E0E7E8F3E20C9498256C0152
:10471000EB015A01FC0117821682512CF601E3804D
:10472000FE01E3FC8591E3FE8191182FEF018823C0
:1047300009F4EEC090E00E94C01E892B21F0C60152
:104740000E941822EBCF153241F4FE01E3FC1591D3
:10475000E3FE1191EF01153281F4C6010E94F41EAF
:1047600097FDD4C0412F50E09C0133272417350713
:10477000A9F2B6010E94B624CBC01A3239F4E3FC88
:104780001591E3FE1191EF0101E001C000E0F12C71
:1047900020ED210F2A3080F402606F2D70E080E060
:1047A00090E040E20E94F121F62EFE01E3FC15911B
:1047B000E3FE1191EF01ECCF01FF03C0F11003C044
:1047C000A7C0FF24FA94183619F01C3651F010C017
:1047D000FE01E3FC1591E3FE1191EF01183641F45F
:1047E00008600460FE01E3FC1591E3FE1191EF0106
:1047F000112309F48DC0612F70E086EA90E00E94D9
:104800009524892B09F484C000FD07C0F501808040
:104810009180C50102965C0102C0812C912C1E364C
:1048200051F4F6014681578160E070E0202FC40109
:104830000E94E52173CF1336A9F401FD02C0FF24C5
:10484000F394C6010E94F41E97FD60C08114910488
:1048500029F0F4018083C40101964C01FA94F1100F
:10486000F0CF50C01B3559F49E01A4016F2DC60135
:104870000E94C322EC01892B09F044C03EC0C6014E
:104880000E94182297FD42C01F3661F128F41436A9
:1048900039F1193651F128C0133771F0153701F18C
:1048A00023C08114910429F0F4016082C4010196AF
:1048B0004C01FA94FF2071F0C6010E94F41E3C01E5
:1048C00097FD08C00E94C01E892B59F3B601C30191
:1048D0000E94B62481149104A9F0F401108212C040
:1048E000006203C0006101C00064202FA4016F2D8D
:1048F000C6010E943122811105C0F60183818073B7
:1049000029F406C000FD0ACF539408CF552019F0B2
:10491000852D90E002C08FEF9FEFCDB7DEB7EFE0BF
:104920000C94B425992788270895FC010590061654
:1049300021F00020D9F7C00108953197CF010895E3
:10494000FC010590615070400110D8F7809590955A
:104950008E0F9F1F0895FC0161507040019001105F
:10496000D8F7809590958E0F9F1F0895FB012381A6
:1049700020FF12C026FD10C08F3F3FEF930761F06C
:1049800082832F7D20642383268137812150310942
:1049900037832683992708958FEF9FEF0895FA01B3
:1049A000AA27283051F1203181F1E8946F936E7F6E
:1049B0006E5F7F4F8F4F9F4FAF4FB1E03ED0B4E05F
:1049C0003CD0670F781F891F9A1FA11D680F791FA0
:1049D0008A1F911DA11D6A0F711D811D911DA11DB1
:1049E00020D009F468943F912AE0269F11243019C1
:1049F000305D3193DEF6CF010895462F4770405D5C
:104A00004193B3E00FD0C9F7F6CF462F4F70405D0A
:104A10004A3318F0495D31FD4052419302D0A9F765
:104A2000EACFB4E0A6959795879577956795BA955F
:104A3000C9F700976105710508959B01AC010A2E25
:104A400006945795479537952795BA95C9F7620FFC
:104A5000731F841F951FA01D0895DC01CB01FC016D
:104A6000F999FECF06C0F2BDE1BDF89A319600B4C7
:104A70000D9241505040B8F70895F999FECF92BD7C
:104A800081BDF89A992780B50895DC01A40FB51F60
:104A90004150504048F0CB01840F951F2E910E9449
:104AA000562541505040D0F70895262FF999FECF52
:104AB00092BD81BDF89A019700B4021639F01FBA71
:104AC00020BD0FB6F894FA9AF99A0FBE0895262FD2
:104AD000F999FECF1FBA92BD81BD20BD0FB6F894E3
:104AE000FA9AF99A0FBE019608950E946725272F1A
:104AF0000C946825DB018F939F930E948A25BF91B8
:104B0000AF91A29F800D911DA39F900DB29F900D1C
:104B1000112408950E949B1DA59F900DB49F900D98
:104B2000A49F800D911D112408952F923F924F92C2
:104B30005F926F927F928F929F92AF92BF92CF922D
:104B4000DF92EF92FF920F931F93CF93DF93CDB736
:104B5000DEB7CA1BDB0B0FB6F894DEBF0FBECDBFAE
:104B600009942A88398848885F846E847D848C847F
:104B70009B84AA84B984C884DF80EE80FD800C8188
:104B80001B81AA81B981CE0FD11D0FB6F894DEBF6B
:0C4B90000FBECDBFED010895F894FFCFDB
:104B9C0000000001000000000000F801000000000F
:104BAC00000200000000160200000000FFFF00E6FB
:104BBC0000640D0A0031303A33343A3232004E6F11
:104BCC00762031312032303139000A0D45562063C0
:104BDC00686172676572204D455431362056302E0F
:104BEC00332E310025732025732025732025730067
:104BFC004C43442000646574656374656420616E85
:104C0C006420726561647920746F2075736500454A
:104C1C0056432056302E332E31200031303A333467
:104C2C003A3232006E6F7420726561647920287399
:104C3C0074617475733D2564290A0030782530320F
:104C4C00782028007379732E657272636E742E74DB
:104C5C0061736B3A20003078253034782028002599
:104C6C006400082008000A0A0D3E000A0A0D006BB9
:104C7C0031006B3200206D616769633A2025303852
:104C8C006C780A00207374617274436E743A202538
:104C9C00750A00207663704B3A2025640A00207652
:104CAC006370443A2025640A0020637572724B3A93
:104CBC002025640A002074656D704B3A2025640A27
:104CCC00002074656D704F6666733A2025640A0A7D
:104CDC0000636C656172004F4B0A007265736574FA
:104CEC00004545323A005452494D3A002530326461
:104CFC00207C20002533643A253032643A2530324A
:104D0C006420007C20253032782025303278202514
:104D1C0030327820253032782025303278202530FA
:104D2C00327820007C2025632533644320007C20CE
:104D3C002532642E2531645620007C202533642EC8
:104D4C0025316425252000496E69740054657374FF
:104D5C00005374617274004E6F74436F6E6E6563B2
:104D6C0074656400455652656164790043686172EC
:104D7C0067696E67003F202825642900253364206D
:104D8C00253032782020253032782020253032789A
:104D9C0020202530327820202530327820007C20CD
:104DAC0025303278202530347820007C202563256E
:104DBC0032752E253175487A20007C2025632533E9
:104DCC00752E253175562000253364202530327818
:104DDC0020202530327820202530327820202530B4
:104DEC003278202530337820007C20253364200055
:104DFC007C2025632532752E2531754120007C20C1
:104E0C00253464564120007C202535645720007CD5
:104E1C002025356476617220007C20256C642E255B
:104E2C003032646B576800202530347800202530F0
:104E3C0034783A20253032780A0020202532642834
:104E4C00253031782F2530317829202535642D25D2
:104E5C003032643A253032643A25303264202D3EAB
:104E6C00200073797374656D2073746172740073B0
:104E7C007461727420636861726765206D6178413A
:104E8C006D70733D25750073746F702000636861DD
:104E9C007267652025753A253032752C20453D25E5
:104EAC00752E253032756B5768003F202800202561
:104EBC003032780025642076616C6964206C6F67F1
:104ECC00207265636F7264730A0025647C253264FA
:104EDC00417C25637C253264437C00494E49540057
:104EEC0054455354005354415254003132562F2DD3
:104EFC002D2D002039562F455620002036562F5286
:104F0C004459002036562F434847003F0025326451
:104F1C002E25316441200025346456202532642E20
:104F2C00253164487A002534645641202535645770
:104F3C000025643A253032643A25303264002D2D38
:044F4C002D2D2D00DA
:00000001FF
