:107800000C94343C0C94513C0C94513C0C94513CE1
:107810000C94513C0C94513C0C94513C0C94513CB4
:107820000C94513C0C94513C0C94513C0C94513CA4
:107830000C94513C0C94513C0C94513C0C94513C94
:107840000C94513C0C94513C0C94513C0C94513C84
:107850000C94513C0C94513C0C94513C0C94513C74
:107860000C94513C0C94513C11241FBECFEFD8E036
:10787000DEBFCDBF11E0A0E0B1E0E6EFFEE702C061
:1078800005900D92A631B107D9F711E0A6E1B1E05C
:1078900001C01D92A931B107E1F70E94353F0C9458
:1078A000793F0C94003C14BE88E10FB6F8948093A5
:1078B0006000109260000FBE82E08093C00088E1FB
:1078C0008093C1001092C50082E28093C4000895A5
:1078D0008091C000881F8827881F08958091C0006C
:1078E00087FFFCCF8091C60008958093C6008091E9
:1078F000C00085FFFCCF0895CF93DF93EC01899101
:10790000882319F00E94753CFACFDF91CF9108953A
:10791000CF93DF93FC018491EF012196882321F01E
:107920000E94753CFE01F7CFDF91CF9108958DE065
:107930000E94753C8AE00C94753C90ED980F9A304B
:1079400070F09FEB980F963010F4875308959FE9DD
:10795000980F963010F48755089580E00895892F88
:1079600008951F93CF93DF931F92CDB7DEB769833E
:107970000E949D3C182F6981862F0E949D3C90E1BA
:10798000199F800D11240F90DF91CF911F910895C1
:10799000FC01618180810E94B13C282F30E024509D
:1079A00031092036310548F41092C1001092C5000B
:1079B0008093C40088E18093C1000895FC01618137
:1079C00080810E94B13C809318010895CF93982F35
:1079D00092959F70282F2F709A3010F087E301C086
:1079E00080E3890F2A3010F0C7E301C0C0E3C20F63
:1079F0000E94753C8C2FCF910C94753CCF93DF93F4
:107A0000CDB7DEB7CA58D1400FB6F894DEBF0FBE6F
:107A1000CDBF2FEF31EE84E0215030408040E1F7C0
:107A200000C000000E94973C82E091E00E947C3CF4
:107A300080E090E0FE01E75FFE4F7F014F01FFEF26
:107A40008F1A9F0A5E0127E7A21A2EEFB20A772447
:107A500073942091C00027FFFCCF6C013FEFC31A45
:107A6000D30A2091C600E1E0F0E0EC0FFD1FE80F23
:107A7000F91F208383E0C816D10449F48981863434
:107A800011F0C601E6CF88E50E94753C12C093E86C
:107A9000C916D104B1F78DE30E94753C8A810E941A
:107AA000753C8B810E94753CCC57DF4F1882C458BF
:107AB000D0408981863479F4EFEFF1EE24E0E15093
:107AC000F0402040E1F700C00000E0911601F09185
:107AD00017010995D9C0803509F0D6C06B818A811C
:107AE0000E94B13C382E90911801612C23E030E0C7
:107AF00000E010E02C153D050CF048C0923078F005
:107B0000943098F5E1E0F0E0EC0FFD1FE20FF31F79
:107B10008081F701E00FF11F8083290122C0290134
:107B20008FEF481A580AE1E0F0E0EC0FFD1FE40D7A
:107B3000F51DA1E0B0E0AC0FBD1FA20FB31F608127
:107B40008C91C657DE4F9883CA58D1400E94B13CF1
:107B5000F701E00FF11F8083C657DE4F9881CA58A6
:107B6000D140003811054CF403C0260100E010E0BC
:107B7000F701E00FF11F8081680E0F5F1F4F920128
:107B80002F5F3F4F013811050CF4B4CF9D7F39F4BE
:107B900000381105B9F0102F0027016063C0913043
:107BA00089F40138110521F0102F002702605AC016
:107BB000F5018081681631F0062D10E0102F0027A6
:107BC000036050C0F999FECFF0E83F9EC001112438
:107BD00023E0FC0120935700E89507B600FCFDCF99
:107BE0009401D701AC014E195F096A01CA0EDB1E70
:107BF0001C91F901608170E0762F6627610F711D7D
:107C0000F6010B0170925700E895112412962E5F31
:107C10003F4FAA15BB0549F725E0FC01209357000B
:107C2000E89507B600FCFDCF81E180935700E89509
:107C3000D701612C20E030E0FA01EA0FFB1FE4914C
:107C40006E0E8D91E81721F0122F0027046002C0FC
:107C500000E010E02F5F3F4F0115110519F42038A7
:107C6000310551F780E20E94753C862D0E94E63C6A
:107C700080E20E94753C802F0E94E63C80E20E94D8
:107C8000753C812F0E94E63C0E94973C82E091E087
:107C90000E947C3CC12CD12CF4CEFC01808181332C
:107CA00089F48181823371F48281883359F480911F
:107CB0001801843010F40E94FE3CE0910001F09124
:107CC00001010995E0911601F09117010994EF92D5
:107CD000FF920F931F93CF93DF938C01FC0162817E
:107CE00081810E94B13CE82E0E94973C8E2D0E941B
:107CF000E63C8AE30E94753CF0E8EF9E7001112497
:107D0000C0E0D0E0FE01EE0DFF1D8491F8019081EE
:107D1000923619F40E94753C02C00E94E63C2196FE
:107D2000C038D10579F7DF91CF911F910F91FF9066
:107D3000EF900C94973C0F931F93CF93DF93CDB7A5
:107D4000DEB760970FB6F894DEBF0FBECDBF10E070
:107D5000882379F01F3068F401E0010FE1E0F0E0E2
:107D6000EC0FFD1FE10FF11D80830E94753C102F69
:107D700080E09091C00097FD0E946E3C8A3059F4DB
:107D800001E0010FE1E0F0E0EC0FFD1FE10FF11D5C
:107D9000108210E00DC08D30D9F6F2CFE1E0F0E0B6
:107DA000EC0FFD1FE10FF11D8081803421F01F5F7A
:107DB0001017A0F34AC01F5F812F90E0E1E0F0E0D0
:107DC000EC0FFD1FE80FF91F2081273699F170F4A1
:107DD000243631F1263659F7019621E030E02C0F98
:107DE0003D1F820F931F0E944D3EE1CF223739F194
:107DF000233761F02D36D9F6019621E030E02C0FC3
:107E00003D1F820F931F0E94DE3CD1CF019621E0DF
:107E100030E02C0F3D1F820F931F0E94C83CC7CF3C
:107E2000019621E030E02C0F3D1F820F931F0E942E
:107E3000673EBDCFE0911601F091170104C0E091BB
:107E40000001F09101010995B2CFE0910001F0919C
:107E50000101099560960FB6F894DEBF0FBECDBF45
:107E6000DF91CF911F910F9108951F93CF93DF93CF
:107E70000E94533C109218010E94973C8CEC9FE7A3
:107E80000E94883C0E94973C85E091E00E947C3CE7
:107E90000E94973C10E0C0E0D0E084E191E00E94B5
:107EA0007C3C21962FEF80E792E02150804090406B
:107EB000E1F700C000008091C00087FF03C00E946E
:107EC0006E3C182FC832D10511F0103431F70E94E2
:107ED000973CA89719F0812F0E949B3EE0911601D4
:107EE000F0911701099580E090E0DF91CF911F910B
:067EF0000895F894FFCF95
:107EF6000078663E00202E2E2E2070726573732049
:067F0600274027002E00B9
:107FC4009B3ECC7F02003412426F6F746C6F61640D
:107FD40065722056657273696F6E20322E303520BB
:107FE4005B41746D656761333238502C3230313601
:0C7FF4002D30382D32342C53585D200005
:040000030000780081
:00000001FF
