:100000000C94CD000C94EA000C94EA000C94EA00E5
:100010000C94EA000C94EA000C94EA000C946E0F25
:100020000C94EA000C94EA000C94EA000C9415106D
:100030000C940B100C94EA000C94EA000C94EA0067
:100040000C94EA000C94EA000C94150F0C94EA004E
:100050000C94EA000C94DA0F0C94EA000C94EA0079
:100060000C94EA000C94EA008003840388038C0358
:100070009003940398039C03A0037C0331323A3429
:10008000323A313000417567202032203230313829
:10009000000A0D45562063686172676572204D4500
:1000A0005431362056302E3200CD002506B100EDF9
:1000B000057465737400636F6D6D616E646F2066A7
:1000C0006F722074657374007465737400696E6672
:1000D0006F004170706C69636174696F6E20696E46
:1000E000666F7300696E666F004C696E652D4D6FAB
:1000F00064653A204354524C2D582C204354524CA2
:100100002D592C204354524C2D432C20526574758C
:10011000726E20200A0D003D01740C1F01510973FD
:10012000696E666F0053797374656D696E666F7280
:100130006D6174696F6E0073696E666F0068656CDF
:1001400070004C697374206F6620616C6C20636F63
:100150006D6D616E64730068656C7000202D3E20CB
:1001600053796E746178206572726F720A0D5573DF
:100170006167653A20004572726F723A20556E6B66
:100180006E6F776E20636F6D6D616E640A0D004552
:1001900072726F7220000A0D3E0011241FBECFEF55
:1001A000D8E0DEBFCDBF13E0A0E0B1E0E4E5FBE2C4
:1001B00002C005900D92A23CB107D9F724E0A2EC51
:1001C000B3E001C01D92AB36B207E1F70E941F10E9
:1001D0000C94A8150C940000ECECF3E083E5DF012F
:1001E0001D928A95E9F7569A8DE0848315828EE5F3
:1001F00096E094A783A716A615A68AE080930D041F
:100200008AE290E0918B808B138A128A16A208955D
:100210000F931F93CF93DF93CDB7DEB765970FB6DC
:10022000F894DEBF0FBECDBF60E080E00E94D90B26
:100230008CE191E00E94FF0B0E942F0C892B09F0AA
:100240005CC082E291E00E94FF0B8E010F5F1F4FA6
:1002500083E391E00E94FF0B80911004813009F448
:100260006FC0813008F476C0823009F46EC08330EC
:1002700021F48CE491E00E94FF0B60E081E00E9499
:10028000D90B4091F3035091F403E091D803F0911E
:10029000D9039A01DF010E949810DC01CB0190582C
:1002A000AF4FBF4FCD01AA27BB279F938F93E05835
:1002B000FF4F1F92FF9340585F4F1F925F9389E556
:1002C00091E09F938F931F9285E18F931F930F93DC
:1002D0000E94C712C8010E94FF0B0FB6F894DEBF40
:1002E0000FBECDBF65960FB6F894DEBF0FBECDBF73
:1002F000DF91CF911F910F91089580910E041F926D
:100300008F9386E291E09F938F931F9285E08F9366
:100310008E010F5F1F4F1F930F930E94C712C801DA
:100320000E94FF0B0FB6F894DEBF0FBECDBF83E374
:1003300091E00E94FF0B80911004813009F091CF71
:1003400086E391E00E94FF0B98CF81E491E00E9448
:10035000FF0B93CF8BE291E00E94FF0B8ECF209199
:10036000C5033091C603A901569547955695479503
:1003700056954795241B350B90E2899F200D311D22
:1003800011243093C6032093C50320583F4F832F79
:100390000895FC0115861486128A138A148A158A18
:1003A00008950F931F93FC01818D681708F4618FE6
:1003B0008789861708F4678B84859585860F911D3C
:1003C00095878487862F90E0A0E0B0E0BA2FA92F10
:1003D000982F882722853385BC01CD01621B730BC2
:1003E000810991099B01AC010E946E10BB2797FD0A
:1003F000BA95A92F982F872F0289138924893589C7
:10040000800F911FA21FB31F828B938BA48BB58B80
:100410001F910F9108958F929F92AF92BF92CF92AA
:10042000DF92EF92FF92FC0182889388A488B588BE
:1004300055274B2D3A2D292DAFE8B2E00E94A71089
:100440006B017C0120E8C20ED11CE11CF11CC686A8
:10045000D786E08AF18A248535850E949810DC01D0
:10046000CB019058AF4FBF4F892F9A2FAB2FBB278F
:1004700093878287AA27BB27809313049093140441
:10048000A0931504B0931604809217049092180458
:10049000A0921904B0921A04C0921B04D0921C04BA
:1004A000E0921D04F0921E04FF90EF90DF90CF9039
:1004B000BF90AF909F908F9008954F925F926F92F0
:1004C0007F928F929F92AF92BF92CF92DF92EF92E4
:1004D000FF92CF93FC01218D208F8FEF818F878931
:1004E000868B178A90E0821B9109228D30E082175B
:1004F0009307E4F51382128260E070E0C12CD12CE6
:10050000760120813181C901A0E0B0E08C199D09FC
:10051000AE09BF09B7FDAFC081309A40A105B10552
:10052000ACF4C90196958795929582958F7089272D
:100530009F708927281B390B769567957295629570
:100540006F7067277F706727620F731F71836083E7
:10055000CF91FF90EF90DF90CF90BF90AF909F90A2
:100560008F907F906F905F904F900895F89486855C
:100570009785A089B189292F3A2F4B2F5527789439
:10058000AFE8B2E00E94A7106B017C0120E8C20E28
:10059000D11CE11CF11C4085518526013701769460
:1005A0006794579447947694679457944794CEEF02
:1005B0000FC06415750586059705B8F557FD35C05C
:1005C000440F551F4F5F5F4F51874087C15049F11E
:1005D0004A01A12CB12C9A01DA010E9498106C15E5
:1005E0007D058E059F0528F3C616D706E806F90691
:1005F00068F5DC01CB01B695A79597958795B695DB
:10060000A79597958795C816D906EA06FB06B0F414
:1006100041155105D9F05695479551874087C150EE
:10062000B9F69A0140E050E013C04F3F8FEF5807F2
:1006300069F04F5F5F4F51874087C8CF4115510523
:1006400029F04150510951874087C0CFA50194013D
:10065000A481B5810E94A710BB27A92F982F872FAF
:1006600026813781B901680F791F738362836B011B
:10067000E12CF12C46CFB095A095909581959F4F98
:10068000AF4FBF4F49CF88ED93E00E945D0283EFEB
:1006900093E00E945D020E942F0C892B71F480E090
:1006A0000E94640817BC10920E041092100481E09E
:1006B0000E943F0A811119C0089581E00E946408D8
:1006C0000E94350C8A30910590F010920E048091B2
:1006D0000F04803AC8F18FEF87BD81E0809310044A
:1006E00081E00E943F0A882339F30C940801FC0141
:1006F000EC5CFF4F0C94921089E080930E04E7CFDE
:100700008AE080930E04E3CF8BE080930E04DFCF6A
:100710008CE080930E04DBCF8DE080930E04D7CF66
:100720008EE080930E04D3CF8FE080930E04CFCF62
:1007300080E180930E04CBCF87E080930E04C7CF77
:1007400088E080930E04C3CF8837C8F080911104ED
:10075000882371F180910E042FEF829FC001112434
:1007600066E070E00E947E10CB0105966AE070E0C2
:100770000E947E1067BD82E08093100498CF809124
:1007800011048823B9F080910E042FEF829FC001DD
:10079000112466E070E00E947E10CB0105966AE0AD
:1007A00070E00E947E1067BD83E0809310047FCFCD
:1007B0006FEFE0CF6FEFF7CF8F929F92AF92BF9224
:1007C000CF92DF92EF92FF92E62F4091CC035091AF
:1007D000CD036091CE037091CF034F5F5F4F6F4F9A
:1007E0007F4F4093CC035093CD036093CE0370931F
:1007F000CF03823009F445C108F054C0882309F4BE
:10080000F1C0813009F070C080910C04E81710F439
:10081000E0930C0480910A048E1710F4E0930A040C
:100820008091FF03909100048E0F911D909300041E
:100830008093FF038E2F90E0A0E0B0E0BA2FA92FA5
:10084000982F88272091FD033091FE03BC01CD0134
:10085000621B730B810991099B01AC010E946E1010
:10086000BB2797FDBA95A92F982F872FC090050415
:10087000D0900604E0900704F09008048C0D9D1DB4
:10088000AE1DBF1D8093050490930604A09307043A
:10089000B0930804E093D4038091D203843620F10E
:1008A00082E023C0863051F18730F1F4E093D70322
:1008B0001092D2031092E5031092E4031092EA031F
:1008C0001092EB031092EC031092ED0310920004CF
:1008D0001092FF0310920504109206041092070470
:1008E0001092080480E001C080E0FF90EF90DF905C
:1008F000CF90BF90AF909F908F900895E093D603D4
:100900004091D0032091C5033091C6038091D1035B
:1009100090E0E49F800D911D1124880F991F807E27
:100920009F71A901569547955695479556954795B8
:10093000241B350B820F931F9093C6038093C5032E
:1009400080589F4F90930F04809005049090060468
:10095000A0900704B090080455274B2D3A2D292D5F
:10096000AFE8B2E00E94A7106B017C0120E8C20E44
:10097000D11CE11CF11CC0920104D0920204E0924F
:100980000304F09204042091FF03309100040E94BC
:100990009810DC01CB019058AF4FBF4F892F9A2F91
:1009A000AB2FBB279093FE038093FD03AA27BB27A1
:1009B0008093130490931404A0931504B093160429
:1009C0008092170490921804A0921904B0921A040D
:1009D000C0921B04D0921C04E0921D04F0921E04ED
:1009E00087E083CF8091D2038F5F8093D203809181
:1009F000F103E81710F4E093F1038091EF038E17F1
:100A000010F4E093EF038091E4039091E5038E0FDF
:100A1000911D9093E5038093E4038E2F90E0A0E076
:100A2000B0E0BA2FA92F982F88272091E2033091A8
:100A3000E303BC01CD01621B730B810991099B018A
:100A4000AC010E946E10BB2797FDBA95A92F982F75
:100A5000872FC090EA03D090EB03E090EC03F09076
:100A6000ED038C0D9D1DAE1DBF1D8093EA03909379
:100A7000EB03A093EC03B093ED03E093D30381E089
:100A800034CFE093D5038090EA039090EB03A090DD
:100A9000EC03B090ED0355274B2D3A2D292DAFE8EF
:100AA000B2E00E94A7106B017C0120E8C20ED11CAD
:100AB000E11CF11CC092E603D092E703E092E80348
:100AC000F092E9032091E4033091E5030E9498102D
:100AD000DC01CB019058AF4FBF4F892F9A2FAB2F1E
:100AE000BB279093E3038093E203AA27BB2780935D
:100AF000130490931404A0931504B09316048092E9
:100B0000170490921804A0921904B0921A04C0928B
:100B10001B04D0921C04E0921D04F0921E0486E097
:100B2000E4CE0895089508958091C4038F5F809363
:100B3000C4038E3780F01092C40380911204811197
:100B400020C081E00E94190C80911004813081F452
:100B500080E00C94240C90911204911112C08E33F9
:100B600080F380E00E94190C80911004813081F3A1
:100B7000813070F3823061F3833051F781E00C945F
:100B8000240C089508950E942F0C892B71F08091F8
:100B9000C3038F3F81F08F5F8093C30391E08F3158
:100BA00008F490E09093110408951092C30390E02C
:100BB00090931104089591E090931104089508957D
:100BC0008091C2038F5F853018F48093C20308952B
:100BD0001092C20381E00C94250ACF92DF92EF922B
:100BE000FF920F931F93CF93DF93882321F18B0103
:100BF0008150C82ED12C8FEFC81AD80AC0E0D0E09F
:100C000089EBE82E81E0F82EF801808191810E5F5A
:100C10001F4F9F938F93DF93CF93FF92EF920E948A
:100C20007A1221960F900F900F900F900F900F90C7
:100C3000CC15DD0549F780E0DF91CF911F910F9131
:100C4000FF90EF90DF90CF90089582EC91E09F931A
:100C50008F930E947A1280914B040E9436090E9461
:100C600094080F900F9080E0089510921F0408954B
:100C7000089582E00895882391F0823041F1833015
:100C800021F08130D1F08FEF089587E892E09F93B3
:100C90008F930E947A120F900F908CE3089589EE43
:100CA00090E00E949D0883ED91E09F938F930E94B6
:100CB0007A120F900F9088E2089587E092E09F9358
:100CC0008F930E947A120F900F908CE3089587E41F
:100CD00092E09F938F930E947A120F900F908CE373
:100CE00008950F931F93CF93DF93813009F4E5C0EC
:100CF00008F488C0823031F1833009F07DC0C3E14F
:100D0000D4E003E713E089919991A991B9919F9358
:100D10008F93CD01AA27BB279F938F931F930F9388
:100D20000E947A120F900F900F900F900F900F90DB
:100D300094E0CF31D90739F782E0DF91CF911F914D
:100D40000F910895F8942091D8033091D9037894A5
:100D50008091E2039091E303AC0155275F934F9399
:100D60001F929F938091EE031F928F938091F003C7
:100D70001F928F938091D3031F928F93C90199275C
:100D8000AC01440F551F880F991F880F991F880FBA
:100D9000991F840F951F1F929F931F923F938CE37F
:100DA00093E09F938F930E947A128091E603909133
:100DB000E703A091E803B091E9039F938F93CD01DE
:100DC000AA27BB279F938F938091DB031F928F935A
:100DD0008BE693E09F938F930E947A128DB79EB714
:100DE00048960FB6F8949EBF0FBE8DBF82E0DF918C
:100DF000CF911F910F9108958FEFDF91CF911F91A8
:100E00000F91089520910F04822F8F703AE0839FF5
:100E1000C00111249595879595958795959587950A
:100E2000959587959F938F9322952F701F922F935F
:100E30008091D9031F928F938091F4031F928F9317
:100E40008091D7031F928F938091D6031F928F9327
:100E50008091D5031F928F938091D4031F928F931B
:100E60008091D3031F928F9382E992E09F938F9397
:100E70000E947A128DB79EB744960FB6F8949EBF23
:100E80000FBE8DBF80911004813009F476C008F444
:100E90007AC0823009F474C0833009F068C080EFF2
:100EA00092E09F938F930E947A120F900F9084E1AB
:100EB000DF91CF911F910F910895F8942091F30342
:100EC0003091F40378948091FD039091FE03AC017E
:100ED00055275F934F931F929F93809109041F9210
:100EE0008F9380910B041F928F938091D4031F9254
:100EF0008F93C9019927AC01440F551F880F991F83
:100F0000880F991F880F991F840F951F1F929F9319
:100F10001F923F938BEF92E09F938F930E947A12E0
:100F20008091010490910204A0910304B091040403
:100F30009F938F93CD01AA27BB279F938F93809177
:100F4000F6031F928F938AE293E09F938F930E9400
:100F50007A128DB79EB748960FB6F8949EBF0FBE13
:100F60008DBF82E0DF91CF911F910F9108958FE3A4
:100F700090E00E94901284E1E0CE82ED92E091CF69
:100F800083EE92E08ECF8EEC92E08BCF20916304C3
:100F90003091640428173907C1F490914F0480916F
:100FA0004E04981791F0E0914E0481E08E0F8093EB
:100FB0004E04F0E0E55BFB4F868190914E0490314A
:100FC00010F010924E0490E008958EEF9FEF089578
:100FD00020916504309166042617370751F49091EB
:100FE000C00095FFFCCF8093C600082E000C990B23
:100FF00008958EEF9FEF0895AC0106C04B50510944
:1010000081F1992309F442C0109262042C9A2D9820
:1010100085E08A95F1F700005F9A80E58A95F1F7FF
:1010200093B19295907F909362045F9885E08A9542
:10103000F1F700005F9A80E58A95F1F793B120916E
:1010400062049F70922B909362045F9885E08A956A
:10105000F1F700002C989091620490784B30510584
:1010600068F680916104813039F081E0911109C006
:1010700094B19F6094B90895992379F08BEF809390
:10108000610480E094B19F6094B9089580916104F7
:1010900081E094B19F6094B9089581E0E9CF8DE734
:1010A00093E09F938F930E947A12A0E2B4E012968D
:1010B000EC911297E1501296EC93F0E0E05EFB4F5A
:1010C00013820F900F900895882351F084B58111F9
:1010D0000CC08FEF87BD83E884BD83E085BD089594
:1010E00014BC15BC17BC569A5E9808958F3F11F03A
:1010F0008F5F08958FEF08958F3F2FEF920711F0C4
:10110000019608958FEF9FEF089580914B0487FF1C
:101110000895789408958FB7EBE4F4E09081807897
:10112000892B8083F89408958EEB93E09F938F939F
:101130000E947A120F900F9008950F931F93CF93F0
:10114000DF931F92CDB7DEB7BC010AC06091650482
:1011500070916604082E000C990B0E943E12B80193
:101160008B010F5F1F4F41E050E0CE0101960E94BE
:10117000E51189818111EACF0F90DF91CF911F9105
:101180000F9108950E949D088EEB93E09F938F939B
:101190000E947A120F900F900895CF93DF931F92C1
:1011A000CDB7DEB719828636F1F0833789F0853600
:1011B00031F08FEF9FEF0F90DF91CF910895611580
:1011C0007440B8F780E090E00F90DF91CF910895E0
:1011D000611589E0780768F7FB01808190E00F9046
:1011E000DF91CF91089577FDE4CF41E050E0CE014B
:1011F00001960E94E511898190E00F90DF91CF91D7
:101200000895FF920F931F93CF93DF93D82FF62E5D
:10121000C1E0062F660F110B6091650470916604A2
:101220008D2F0D2E000C990B8827990F881F992759
:10123000C0960E943E12C43059F0DD0FC83011F044
:10124000CF5FEACFDF91CF911F910F91FF9008956B
:10125000F11003C0DD0FCF5FDFCF609165047091A7
:101260006604C8010E943E12DD0FF5CFCF93C82F50
:101270001F928F9381E893E09F938F930E947A123D
:1012800060E28C2F0E9401090F900F900F900F9039
:10129000609165047091660489E290E0CF910C94AE
:1012A0003E120F931F93CF93DF938AE893E09F93AF
:1012B0008F930E947A120BE414E0F80180810E945F
:1012C0003609CEEBD3E0DF93CF930E947A128BE9FD
:1012D00093E09F938F930E947A12F80181810E947C
:1012E0003609DF93CF930E947A12EDB7FEB7389696
:1012F0000FB6F894FEBF0FBEEDBF80E0DF91CF9137
:101300001F910F9108951F93CF93DF93182FC92F2B
:101310009F938F938CEA93E09F938F930E947A120E
:1013200060E28C2F0E940109C3E6D4E06A817B81D0
:1013300080E290E00E943E1260E2812F0E9401094B
:101340000F900F900F900F906A817B8189E290E05F
:10135000DF91CF911F910C943E12CF93DF93EB015D
:10136000FC012081203369F04AE050E060E070E049
:101370000E94C610C617D70774F0CB01DF91CF913A
:1013800008952181283781F740E150E060E070E066
:101390000E94C610EFCF8FEF9FEFF0CF90914F04D8
:1013A00080914E04981738F480914F0490914E0428
:1013B000805F891B089580914F0490914E04891B92
:1013C0000895CF93C82F8FB790914B048078892BC5
:1013D00080934B04F8940E94CE09C81798F4E091CA
:1013E0004E04EC0FE03160F4F0E0E55BFB4F8681EA
:1013F00090E020914B0427FF01C07894CF9108958D
:10140000E051F2CF8FEF9FEFF4CF8FB790914B0465
:101410008078892B80934B04F8948091C00087FFDB
:1014200008C08091C600809351048091C00087FD60
:10143000F8CF10924E0410924F04109250048091F5
:101440004B0487FF0895789408952FB730914B048B
:101450002078232B20934B04F89420914D042823CB
:1014600031E009F430E090914D04982B90934D04B5
:1014700080914B0487FF01C07894832F0895982FA3
:101480008FB720914B048078822B80934B04F89483
:1014900020914D04292381E009F480E020914D043E
:1014A0009095922390934D0490914B0497FF08954B
:1014B0007894089590914D04982381E009F480E098
:1014C00008959C019091610497FD08C08FEF85B944
:1014D00094B1907F94B9C9010C94FC0780E0089501
:1014E0005F982C982D9894B19F6094B995B1907F96
:1014F00095B995B1282F22952F70922B95B95F9AA7
:1015000090E59A95F1F75F9895E09A95F1F70000CC
:1015100095B1907F95B995B18F70892B85B95F9AF8
:1015200080E58A95F1F75F9895E09A95F1F70000CC
:101530000895CF9310926104C1E088E20E94700A7E
:10154000C13009F450C08FE891E00197F1F700C075
:101550000000C43011F0CF5FF0CF8CE00E94700A21
:101560008091610487FD31C0CFEFC5B984B1807F20
:1015700084B982E390E00E94FC07882331F18CE07B
:101580000E94700A8091610487FD24C0C5B984B1AE
:10159000807F84B982E390E00E94FC078823D1F029
:1015A00081E00E94700A8091610487FD18C0C5B96E
:1015B00084B1807F84B980EB94E00E94FC0788238B
:1015C00071F081E08093610403C08FEF8093610428
:1015D000CF9108958DEF80936104CF9108958CEFA2
:1015E00080936104F5CF8FE19EE40197F1F700C08D
:1015F0000000CF5FA2CF88E1EBE4F4E0DF011D92B1
:101600008A95E9F78FE39CE90197F1F700C00000A4
:1016100087EC8093B30082E08093B0008093B100A8
:101620008093700087BB1092800099E090938100B6
:1016300020E436E0309389002093880030938B00BB
:1016400020938A0094E090936F0092E29093C400FC
:101650001092C5008093C00086E08093C20088E9A4
:101660008093C10085B1807C85B95F9884B18F6318
:1016700084B9579A0E94990AE3E6F4E08EE091E07B
:101680009383828380E091E09183808387B1886136
:1016900087B93D98459A8AB1837C8AB98BB18C63AE
:1016A0008BB980EE80937C008EEA80937A0085E08F
:1016B00080937B0008958091610487FD0BC08FEFBC
:1016C00085B984B1807F84B982E390E00E94FC07F1
:1016D000811108958AEF809361040895CF93DF9379
:1016E000EC010E945B0B5F982C982D9A84B18F605F
:1016F00084B985B1807F85B925B1CE01959587954F
:10170000959587959595879595958795822B85B91C
:101710005F9A80E58A95F1F75F9885E08A95F1F701
:10172000000085B1807F85B985B1CF70C82BC5B960
:101730005F9A80E58A95F1F75F9885E08A95F1F7E1
:1017400000002D9885E08A95F1F70000DF91CF9198
:1017500008950E945B0B88E00E94700A0C945B0B5A
:101760000E945B0B8CE00E94700A0C945B0BCF9381
:101770000E945B0B81E00E94700ACFEF80916104B0
:1017800087FDFCCFC5B984B1807F84B980EB94E03C
:101790000E94FC07882391F3CF910895CF93C82F1F
:1017A0000E945B0B8C2F80680E94700ACF910C9472
:1017B0005B0BCF9390916104913011F0CF9108951C
:1017C0008230E0F7C62F811109C00E945B0B8C2F7D
:1017D00080680E94700ACF910C945B0B0E945B0B97
:1017E00080E48C0F80680E94700ACF910C945B0B90
:1017F00020916104213009F008950C946E0BCF9371
:10180000DF93EC018991882381F0909161049130FC
:1018100061F4909161049130A9F7082E000C990BA6
:101820000E946E0B89918111F0CFDF91CF910C94C2
:101830005B0B811102C043980895439A089598B1B3
:1018400088E0892788B90895811102C044980895D5
:10185000449A089598B180E1892788B9089586B19E
:1018600085FB882780F990E0089589B18695869553
:1018700090E0809590958F70992708951F93CF934E
:10188000DF9300D000D0CDB7DEB71A8219821C8258
:101890001B82823000F11EEF180F0E9439061817C4
:1018A00070F4612F70E0660F771F660F771F675522
:1018B0007F4F44E050E0CE0101960E94E51169811E
:1018C0007A818B819C810F900F900F900F90DF9108
:1018D000CF911F910895682F70E0660F771F660FF4
:1018E000771F695E7E4FE5CF8F929F92AF92BF9236
:1018F000CF92DF92EF92FF920F931F93CF93DF93DC
:1019000000E080E0C1E0C80F0E943E0C892B69F026
:10191000CB010E94F711081708F4082F8C2FC1E0A3
:10192000C80F0E943E0C892B99F780E010E00F5FF2
:101930001F4F9EEBC92E93E0D92ED1E0D80F0E9405
:101940003E0C4B015C01AB2889F1CB010E949D0844
:10195000C4010E94F7117C01C82F992708171907A5
:1019600074F0609165047091660480E290E00E94DA
:101970003E12CF5F2C2F30E00217130794F78FEF42
:10198000E81AF80AC701880D991D0E949D08DF9288
:10199000CF920E947A128D2F0F900F90D1E0D80F26
:1019A0000E943E0C4B015C01AB2879F680E0DF9190
:1019B000CF911F910F91FF90EF90DF90CF90BF904C
:1019C000AF909F908F900895EF92FF920F931F9387
:1019D000CF93DF931F92CDB7DEB7FC016081718199
:1019E0008B010F5F1F4F41E050E0CE0101960E9436
:1019F000E511B80189818111F3CF7801FFEFEF1A6A
:101A0000FF0A41E050E0B801CE0101960E94E511C5
:101A1000870189818111F1CFC7010E949D080F9034
:101A2000DF91CF911F910F91FF90EF900895EF926A
:101A3000FF920F931F93CF93DF93CDB7DEB72C9711
:101A40000FB6F894DEBF0FBECDBF8EEB93E09F9331
:101A50008F930E947A12AE014F5F5F4F0F900F90ED
:101A6000FF24F394E3E2F4E090E08081882331F1F5
:101A7000803259F49F012F5F3F4FF90180812F5F22
:101A80003F4F8032D1F38823C9F0DA01ED93FC9304
:101A9000DF01119602C0882331F0FD018D91803263
:101AA000D1F71082FD019F5F81E08F0D4E5F5F4F88
:101AB000943061F1F82E80818111DACF892FE82FDF
:101AC000F0E0EE0FFF1F21E030E02C0F3D1FE20F92
:101AD000F31F118210828F5F843089F7911115C036
:101AE00086E991E00E949D0810922204109223043E
:101AF0002C960FB6F894DEBF0FBECDBFDF91CF910D
:101B00001F910F91FF90EF900895F92EE981FA81CE
:101B10008081882329F380E009C069857A8583E282
:101B200094E00E94EE11892BA1F08E2DEE24E39417
:101B3000E80E0E943E0C69877A878B879C870B850D
:101B40001C850115110549F786E791E00E949D0863
:101B5000C7CF32E0F31208C06DE371E08B819C8146
:101B60000E94EE11892B61F1BE016F5F7F4F8F2DB7
:101B7000F8010995182F811109C08EEB93E09F930E
:101B80008F930E947A120F900F90AACF8FE891E066
:101B90000E949D08812F012E000C990B9F931F938B
:101BA00085EB93E09F938F930E947A120F900F9092
:101BB0000F900F9017FFE1CF8CE591E00E949D08F8
:101BC000CE0109960E94E40CD8CF809122048111A5
:101BD00001C008950C944F080F931F93CF93C62F05
:101BE000662361F0082F880F110B609165047091D6
:101BF0006604C8010E943E12C150B9F7CF911F91EF
:101C00000F910895CF93DF938091200480FF3DC012
:101C1000C0E00E94CE09882309F46CC0809163045F
:101C2000909164040E940012C82F8091CB038A30E7
:101C300011F0CD3021F0C093CB03CA3051F7809121
:101C400020048C7F8093200488EB93E09F938F93F4
:101C50000E947A120F900F90DF91CF91089591E03A
:101C60009E0F90932204F0E0E05EFB4F8383E92F08
:101C7000F0E0E05EFB4F13826091650470916604B2
:101C8000082E000C990B0E943E120E94CE09882358
:101C900019F380916304909164040E940012909162
:101CA000CB039A3011F08D30D9F08093CB0398EEAE
:101CB000980F923078F08A3099F08F3731F388306E
:101CC00091F090EE980F9F3500F7E0912204E732F3
:101CD000E0F6C5CF80912004816080932004D5CFA9
:101CE0000E94170DD2CF80912204882371F20E94A6
:101CF0004F08CBCFC83159F1C93109F47BC0C3308B
:101D000009F47FC0D0E08091200481FF27C080913A
:101D100021046C2F0E947106C82F882351F0609116
:101D200065047091660480E290E00E943E12C1500A
:101D3000B1F78DE090E00E9490128091200482FF24
:101D40008BCF8AE090E0DF91CF910C94901280913C
:101D500020048D7F80932004D1E0D5CF8DEB93E0DC
:101D60009F938F930E947A120F900F900EC08F5FF7
:101D700080932104809121040E943B06C82F87FF95
:101D80000CC080912104882361F1DD2399F38091B7
:101D90002104D13061F38150EBCF8EEB93E09F9320
:101DA0008F930E947A120F900F90CC2351F0609184
:101DB0006504709166048DE290E00E943E12C1506D
:101DC000B1F78EEB93E09F938F930E947A128091EC
:101DD00020048260809320040F900F90DF91CF91B8
:101DE00008958EEB93E09F938F930E947A120F9049
:101DF0000F90E7CF809120048D7F80932004DFEF48
:101E000082CF8091200482FF07C080912004897FC7
:101E100080932004D0E077CF809120048460809369
:101E20002004D0E070CF0C94020E1F920F920FB6D8
:101E30000F9211248F939F93EF93FF938091C6008D
:101E4000823539F18093CA03E0914F0491E09E0FEF
:101E500090934F04F0E0E55BFB4F868380914F0445
:101E6000803110F010924F0490914F0480914E04F5
:101E70009817F9F0E0914F04F0E0E55BFB4F168214
:101E8000FF91EF919F918F910F900FBE0F901F9038
:101E900018959091CA039034A9F698E088E10FB69E
:101EA000F894A895809360000FBE90936000A89569
:101EB000FFCF80914F0481110BC08FE080934F04BE
:101EC000809150048F3F09F08F5F80935004D2CFF0
:101ED00080914F04815080934F04F2CF1F920F9254
:101EE0000FB60F9211242F933F934F935F936F93ED
:101EF0007F938F939F93AF93BF93EF93FF938091C3
:101F0000C9038F5F8530E0F11092C9038091C80347
:101F10008F5F8093C8038091C7038823C1F08091AD
:101F20004C048F3F09F08F5F80934C04FF91EF9139
:101F3000BF91AF919F918F917F916F915F914F91E1
:101F40003F912F910F900FBE0F901F90189581E039
:101F50008093C70378948091C80380FD19C081FDE8
:101F600012C082FD1BC083FD1CC084FD1DC085FD09
:101F700012C086FD1CC087FF08C00E94E00505C096
:101F80008093C903D3CF0E9492051092C703CECF8E
:101F90000E949105FACF0E94C305F7CF0E949305D6
:101FA000F4CF0E949405F1CF0E94C205EECF0E94AB
:101FB000DF05EBCF1F920F920FB60F9211242F93D4
:101FC0003F934F935F936F937F938F939F93AF93C1
:101FD000BF93CF93DF93EF93FF93CCE7D0E088815B
:101FE000609179008F700E94DC038F70806E88830F
:101FF000FF91EF91DF91CF91BF91AF919F918F9121
:102000007F916F915F914F913F912F910F900FBEF4
:102010000F901F9018951F920F920FB60F921124D8
:102020000F900FBE0F901F9018951F920F920FB632
:102030000F9211240F900FBE0F901F9018950E94C1
:10204000FB0A0E94EC000E94350681E990E00E94A4
:102050009D0885E890E00E949D0880E290E00E9443
:1020600090128CE790E00E94C2088EE691E09F9368
:102070008F930E947A12809161040F900F908130AB
:1020800001F180916104282F082E000C330B3F933F
:102090008F9382EA91E09F938F930E947A120F9020
:1020A0000F900F900F900E9494088EE390E00E9492
:1020B000901278940E94130F0E9443030E943806E6
:1020C000F9CF83E791E00E9497128DE891E00E949A
:1020D000FF0B89E991E00E94FF0BE5CFDB018F93B5
:1020E0009F930E94A710BF91AF91A29F800D911D59
:1020F000A39F900DB29F900D1124089597FB072E7A
:1021000016F4009407D077FD09D00E94B21007FCA6
:1021100005D03EF4909581959F4F089570956195F7
:102120007F4F0895EE0FFF1F0590F491E02D099465
:10213000A29FB001B39FC001A39F700D811D112408
:10214000911DB29F700D811D1124911D08950E9453
:102150009810A59F900DB49F900DA49F800D911D88
:1021600011240895AA1BBB1B51E107C0AA1FBB1F66
:10217000A617B70710F0A61BB70B881F991F5A9513
:10218000A9F780959095BC01CD010895A0E0B0E03D
:10219000ECECF0E10C9472155C016B017A016115B5
:1021A000710519F0FB0191838083E114F10429F09A
:1021B000C7010297839708F0E5C0E5012196F50174
:1021C0001081812F90E00E94DC11892B11F05E01BB
:1021D000F4CF1D3229F42196F501118101E007C0E9
:1021E0001B3221F4E5012296F501118100E0E11492
:1021F000F10409F1F0E1EF16F10429F43FC010E316
:10220000E114F10421F128E0E216F10401F154F4A3
:10221000E2E0EE16F10421F5812C912CA12CB0E422
:10222000BB2E3EC0FAE0EF16F10439F020E1E216D1
:10223000F104B1F430C0103319F1FAE0EF2EF12CB3
:10224000ACEC8A2E982CA82CACE0BA2E29C078E0F1
:10225000E72EF12C812C912CA12CE0E1BE2E20C088
:1022600060E070E080E090E897010F2C000C440BD8
:10227000550B0E944F1549015A0112C0103359F4F1
:1022800088818F7D883509F0BACF19812296026046
:1022900080E1E82EF12C812C912CA12C68E0B62E47
:1022A00040E060E070E0CB0127010F2C000C6608D5
:1022B0007708FE0150ED352E310E29E0231570F41C
:1022C0002FEB210F2A3118F439EC332E06C02FE9F9
:1022D000210F2A3118F529EA322E310E232D30E054
:1022E0002E153F05DCF447FD16C086169706A80696
:1022F000B90670F0A30192010E946E10630D711D6A
:10230000811D911D61307105810520E8920710F053
:102310004FEF01C041E021961081CBCF202F2170DB
:10232000C114D10471F0442329F02197F601D1831F
:10233000C08307C001FF19C02297F601D183C08373
:1023400014C047FF12C0222329F060E070E080E053
:1023500090E804C06FEF7FEF8FEF9FE722E230E05D
:1023600030936A042093690409C0222381F0909578
:102370008095709561957F4F8F4F9F4F462F372FD8
:10238000282F12C040E030E020E090E00DC097FF21
:10239000F5CF82E290E090936A04809369046FEF36
:1023A0007FEF8FEF9FE7EACF642F732F822FCDB798
:1023B000DEB7E1E10C948E1591110C94D8148032A3
:1023C00019F089508550C8F70895FB01DC0102C05F
:1023D00005900D9241505040D8F70895FB01DC0163
:1023E0008D91059080190110D9F3990B0895FC0186
:1023F00005900020E9F7809590958E0F9F1F089516
:10240000CF93DF93EC012B8120FF33C026FF0AC05E
:102410002F7B2B838E819F8101969F838E838A8160
:1024200090E029C022FF0FC0E881F9818081082E49
:10243000000C990B009719F420622B831AC0319677
:10244000F983E8830EC0EA85FB85099597FF09C0EB
:102450002B81019611F080E201C080E1822B8B83F9
:1024600008C02E813F812F5F3F4F3F832E839927E6
:1024700002C08FEF9FEFDF91CF9108950F931F93CD
:10248000CF93DF93FB01238121FD03C08FEF9FEFEB
:102490002CC022FF16C04681578124813581421706
:1024A000530744F4A081B1819D012F5F3F4F3183D9
:1024B00020838C93268137812F5F3F4F378326837C
:1024C00014C08B01EC01FB010084F185E02D09951E
:1024D000892BE1F6D80116968D919C91179701965C
:1024E00017969C938E931697CE01DF91CF911F91F3
:1024F0000F910895A0E0B0E0E0E8F2E10C948115BE
:10250000AE014B5F5F4FFA0161917191AF01809114
:102510006504909166040E94F712E2E00C949D1508
:1025200060916504709166040E943E1208950F93B5
:102530001F93CF93DF93E0916504F09166042381AC
:1025400021FF1BC08C01D0E0C0E0F80181918F0118
:102550006091650470916604DB011896ED91FC9121
:102560001997882331F00995892B79F3DFEFCFEFA5
:10257000ECCF8AE00995892B19F08FEF9FEF02C00D
:102580008D2F9C2FDF91CF911F910F910895AEE079
:10259000B0E0EDECF2E10C947F150D891E898F8976
:1025A000988D26E02C831A83098397FF02C080E070
:1025B00090E801979E838D83AE01455E5F4F698DE4
:1025C0007A8DCE0101960E94F7124D815E8157FDF2
:1025D0000AC02F813885421753070CF49A01F8017D
:1025E000E20FF31F10822E96E4E00C949B15ABE0F3
:1025F000B0E0EDEFF2E10C9471156C017B018A0102
:10260000FC0117821682838181FFCCC1CE01019625
:102610003C01F6019381F70193FD859193FF819130
:102620007F01882309F4BAC1853239F493FD85917D
:1026300093FF81917F01853229F4B60190E00E94D9
:102640003E12E7CF912C212C312CFFE1F315D8F06D
:102650008B3279F038F4803279F08332A1F4232D73
:1026600020611DC08D3261F0803369F4232D21601B
:1026700016C0832D8260382EE32DE4603E2E2AC0E2
:10268000F32DF8601DC037FC2DC020ED280F2A3037
:1026900040F08E32B9F436FC81C1232D2064322EF5
:1026A00019C036FE06C08AE0989E200D1124922E95
:1026B00011C0EAE02E9E200D1124222EF32DF0628F
:1026C0003F2E08C08C3621F4832D8068382E02C03E
:1026D000883641F4F70193FD859193FF81917F0145
:1026E0008111B3CF982F9F7D9554933028F40C5FC0
:1026F0001F4F9FE399830DC0833631F0833771F00C
:10270000833509F059C021C0F801808189830E5FAB
:102710001F4F88248394912C530113C02801F2E0A9
:102720004F0E511CF801A080B18036FE03C0692D08
:1027300070E002C06FEF7FEFC5010E94E6144C010C
:102740008201F32DFF773F2E16C0280122E0420EB2
:10275000511CF801A080B18036FE03C0692D70E0E5
:1027600002C06FEF7FEFC5010E94DB144C01F32D17
:10277000F0683F2E820133FC1BC0822D90E088164A
:102780009906B0F4B60180E290E00E943E122A94CD
:10279000F4CFF50137FC859137FE81915F01B601D9
:1027A00090E00E943E1221102A9421E0821A9108A2
:1027B0008114910471F7E8C0843611F0893641F52F
:1027C000F80137FE07C060817181828193810C5FBF
:1027D0001F4F08C060817181072E000C880B990B78
:1027E0000E5F1F4FF32DFF763F2E97FF09C0909588
:1027F0008095709561957F4F8F4F9F4FF0683F2E6A
:102800002AE030E0A3010E94F114882E861845C00A
:10281000853731F4232D2F7EB22E2AE030E025C0FB
:10282000932D997FB92E8F36C1F018F4883579F041
:10283000B5C0803719F0883721F0B0C0E92FE061CA
:10284000BE2EB4FE0DC0FB2DF460BF2E09C034FEB9
:102850000AC0292F2660B22E06C028E030E005C04D
:1028600020E130E002C020E132E0F801B7FE07C00D
:1028700060817181828193810C5F1F4F06C06081EE
:10288000718180E090E00E5F1F4FA3010E94F11460
:10289000882E8618FB2DFF773F2E36FE0DC0232D88
:1028A0002E7FA22E891458F434FE0BC032FC09C0CE
:1028B000832D8E7EA82E05C0B82CA32C03C0B82C67
:1028C00001C0B92CA4FE0FC0FE01E80DF11D8081EE
:1028D000803321F49A2D997EA92E09C0A2FE06C04C
:1028E000B394B39404C08A2D867809F0B394A3FC02
:1028F00011C0A0FE06C0B21488F4280C922C9B18BC
:102900000EC0B21460F4B60180E290E00E943E1264
:10291000B394F7CFB21418F42B1802C0982C212CC2
:10292000A4FE10C0B60180E390E00E943E12A2FE19
:1029300017C0A1FC03C088E790E002C088E590E0E2
:10294000B6010CC08A2D867859F0A1FE02C08BE238
:1029500001C080E2A7FC8DE2B60190E00E943E1229
:10296000891438F4B60180E390E00E943E129A94F4
:10297000F7CF8A94F301E80DF11D8081B60190E054
:102980000E943E128110F5CF222009F442CEB601FA
:1029900080E290E00E943E122A94F6CFF6018681F2
:1029A000978102C08FEF9FEF2B96E2E10C948D157B
:1029B000992788270895FC01059061507040011007
:1029C000D8F7809590958E0F9F1F0895FC01615058
:1029D000704001900110D8F7809590958E0F9F1F41
:1029E0000895FA01AA27283051F1203181F1E894A5
:1029F0006F936E7F6E5F7F4F8F4F9F4FAF4FB1E0F2
:102A00003ED0B4E03CD0670F781F891F9A1FA11DEC
:102A1000680F791F8A1F911DA11D6A0F711D811DED
:102A2000911DA11D20D009F468943F912AE0269FB2
:102A300011243019305D3193DEF6CF010895462F11
:102A40004770405D4193B3E00FD0C9F7F6CF462FF2
:102A50004F70405D4A3318F0495D31FD405241935B
:102A600002D0A9F7EACFB4E0A69597958795779518
:102A70006795BA95C9F700976105710508959B019F
:102A8000AC010A2E06945795479537952795BA9528
:102A9000C9F7620F731F841F951FA01D0895A1E23F
:102AA0001A2EAA1BBB1BFD010DC0AA1FBB1FEE1FC8
:102AB000FF1FA217B307E407F50720F0A21BB30B13
:102AC000E40BF50B661F771F881F991F1A9469F78F
:102AD00060957095809590959B01AC01BD01CF01EB
:102AE00008952F923F924F925F926F927F928F92B2
:102AF0009F92AF92BF92CF92DF92EF92FF920F938D
:102B00001F93CF93DF93CDB7DEB7CA1BDB0B0FB696
:102B1000F894DEBF0FBECDBF09942A883988488853
:102B20005F846E847D848C849B84AA84B984C884E9
:102B3000DF80EE80FD800C811B81AA81B981CE0FE0
:102B4000D11D0FB6F894DEBF0FBECDBFED010895C5
:042B5000F894FFCF27
:102B540000000001000000000000C60700000000A3
:102B6400000200000000E80700000000494D415841
:102B74003D002030410025326441004F464620206C
:102B84002020202020004E4F2045562020202020A9
:102B9400004556204F4B2020202020002020453D7A
:102BA4003F3F3F2E3F6B576800553D253364562009
:102BB400493D2532644120503D25346457004C433F
:102BC400442000646574656374656420616E6420E8
:102BD400726561647920746F20757365004556438E
:102BE4002056312E30202D200031323A34323A3101
:102BF40030006E6F7420726561647920287374618B
:102C04007475733D2564290A0025753A2025730AD5
:102C14000D006170702E666C6167735F75382020DB
:102C24003A20004C30207C20413020413120413278
:102C3400204136204137207C20566F6C74207C2044
:102C4400416D7073207C202020564350207C2053FB
:102C5400544154555320004C31207C20566F6C74E1
:102C64006167650A2020207C20202020524D5320BB
:102C74007C2041444331204D494E204D4158202071
:102C8400204D45442020202D3E56202020524D53D7
:102C94005E3278323536004C32207C2043757272B5
:102CA400656E740A2020207C20202020524D532061
:102CB4007C2041444330204D494E204D4158202032
:102CC400204D45442020202D3E41202020524D53AC
:102CD4005E3278323536004C33207C204465627590
:102CE40067002020207C202530327820253032785F
:102CF4002025303278202530327820253032782053
:102D04007C2025336456207C202025326441207C9D
:102D1400202532642E2530316456207C20004F4615
:102D240046004556206E6F7420636F6E6E65637443
:102D3400656400455620636F6E6E65637465640058
:102D44004556206C6F6164696E67002020207C20EA
:102D54002533642E2530316456207C2020202530F4
:102D640032782020253032782020253032782025F2
:102D74003032782E253032782000202533645620D6
:102D84002020202530347825303478002020207C01
:102D9400202533642E2530316441207C20202025D9
:102DA40030327820202530327820202530327820A7
:102DB400253032782E2530327820002025336441A6
:102DC400202020202530347825303478000820084D
:102DD400003078253032782028007379732E666CA1
:102DE4006167735F753820203A20007379732E74FD
:102DF40061736B4572725F75383A20003078253004
:102E040034782028002564000A0A0D3E000A0A0DC1
:022E14000000BC
:00000001FF
